:100000000C9441050C94EA2D0C9488050C948805F9
:100010000C9488050C9488050C9488050C9488052C
:100020000C9488050C9488050C94BF280C94FB272D
:100030000C94261E0C9488050C9488050C94880555
:100040000C9488050C9488050C9488050C948805FC
:100050000C9488050C94D91D0C9488050C94880583
:100060000C9488050C9488050C9488050C948805DC
:100070000C9488050C9488050C9488050C948805CC
:100080000C9488050C9488050C9488050C948805BC
:100090000C9488050C9488050C9488050C948805AC
:1000A0000C9488050C9488050C9488058A0A8A0AA1
:1000B000C40AC40A1B0BC20CC20CC20C370B150CB1
:1000C000260C260C6A216A217D217D2173217D2148
:1000D0007D217D216A216A2178217D217D21782160
:1000E00015263C26DD273C26DD278826AB26DD2786
:1000F000A027AF276261636B6C69676874206465D1
:100100006372656173653A2025750A006261636BED
:100110006C6967687420696E6372656173653A2003
:1001200025750A006261636B6C6967687420646995
:100130007361626C650A006261636B6C6967687405
:1001400020746F67676C653A2025750A00626163E9
:100150006B6C6967687420737465703A2025750A42
:10016000007267626C696768742064697361626CAD
:1001700065205B454550524F4D5D3A207267626C79
:10018000696768745F636F6E6669672E656E61622A
:100190006C65203D2025750A007267626C6967688E
:1001A0007420746F67676C65205B454550524F4DF6
:1001B0005D3A207267626C696768745F636F6E6630
:1001C00069672E656E61626C65203D2025750A00A9
:1001D00044454255473A2064697361626C65642EF8
:1001E0000A0044454255473A20656E61626C656479
:1001F0002E0A007267626C696768745F636F6E666F
:1002000069672E7370656564203D2025640A00725D
:1002100067626C696768745F636F6E6669672E7684
:10022000616C203D2025640A007267626C69676812
:10023000745F636F6E6669672E736174203D20255D
:10024000640A007267626C696768745F636F6E66E8
:1002500069672E687565203D2025640A007267680D
:100260006C696768745F636F6E6669672E6D6F6433
:1002700065203D2025640A007267626C69676874B6
:100280005F636F6E6669672E656E61626C65203DA7
:100290002025640A007267626C696768745F636F27
:1002A0006E66696720454550524F4D3A0A007267A5
:1002B000626C696768745F696E6974207267626CEA
:1002C000696768745F636F6E6669672E6D6F6465DA
:1002D000203D20302E205772697465206465666168
:1002E000756C742076616C75657320746F2045455C
:1002F00050524F4D2E0A007267626C696768745FD6
:10030000696E6974206565636F6E666967206973DD
:10031000206E6F7420656E61626C65642E0A0072D7
:1003200067626C696768745F696E69742073746171
:100330007274210A007267626C696768745F696E23
:1003400069742063616C6C65642E0A004B65796288
:100350006F6172642073746172742E0A000A002542
:10036000303862003A200025303258000A722F637C
:100370002030313233343536370A007267626C69A7
:1003800067687420616E696D6174696F6E2074694D
:10039000636B207265706F727420746F20736C6170
:1003A00076650A0000047F3F1F64321464321478BB
:1003B0003C1E1E140A050A0025303258006B657970
:1003C000626F6172645F7365745F6C65643A20008C
:1003D0005B735D004F6E6573686F743A2061637480
:1003E0006976653A2025640A000A002530325820D3
:1003F000006B6579626F6172645F7265706F7274B1
:100400003A200054617267657420636F6E6E656395
:100410007465640D0A0054617267657420646973C1
:10042000636F6E6E65637465642C207468726F749C
:10043000746C696E6720636F6E6E656374696F6E4E
:1004400020617474656D7074730D0A007267626C5C
:10045000696768742064697361626C65205B4E4FE4
:10046000454550524F4D5D3A207267626C6967682E
:10047000745F636F6E6669672E656E61626C65207E
:100480003D2025750A004661696C656420746F2003
:10049000657865637574652025730A007267626C00
:1004A000696768742074696D65722064697361623C
:1004B0006C652E0A002223252628292A2C2D2F3070
:1004C00032333536383A3B3D3E4042434547494A50
:1004D0004C4E5051535557595A5C5E606264666881
:1004E000696B6D6F71737577797B7D7F818385878C
:1004F000898A8C8E90929496989A9C9E9FA1A3A58F
:10050000A7A8AAACAEAFB1B3B4B6B8B9BBBCBEBFB6
:10051000C1C2C3C5C6C7C9CACBCCCDCED0D1D2D239
:10052000D3D4D5D6D7D7D8D9D9DADADBDBDBDCDC44
:10053000DCDCDCDDDDDDDDDCDCDCDCDCDBDBDBDAFC
:10054000DAD9D9D8D7D7D6D5D4D3D2D2D1D0CECD67
:10055000CCCBCAC9C7C6C5C3C2C1BFBEBCBBB9B874
:10056000B6B4B3B1AFAEACAAA8A7A5A3A19F9E9CF9
:100570009A98969492908E8C8A89878583817F7DC4
:100580007B79777573716F6D6B6968666462605EA5
:100590005C5A5957555351504E4C4A49474543426E
:1005A000403E3D3B3A3836353332302F2D2C2A2908
:1005B00028262523226261636B6C69676874206555
:1005C0006E61626C650A0029001E001F0020002178
:1005D0000022002B0037003600330013001C00E11E
:1005E0000004001200080018000C00640038001419
:1005F000000D000E001B00000000003500E3002885
:100600000002514D00270026002500240023004C45
:10061000000F000B0006000A0009002A0016001156
:10062000001700150007004A001D0019001A0010ED
:1006300000050000000000460065002C000151018B
:10064000005300540055005600000001005F006098
:100650000061005700000001005C005D005E008545
:10066000000000620059005A005B006700010000B2
:10067000000000630001000100010001002E002DB8
:1006800000000000000000010030002F000000000A
:1006900000000001003200340000000000000001F2
:1006A000000000000000000000000000000000E06A
:1006B000000100010001003A003B003C003D003E0B
:1006C000003F0001000000BE00AA00A900BD00011B
:1006D000000000BE5C4E004B00BF5C00000000BD8F
:1006E0005C51005200BD5C00000000E00001000110
:1006F0000001004500440043004200410040000169
:10070000004F00500000000000000001004D004AB2
:10071000000000CC5CCD5C0100AB00AC000000C46C
:100720005CC55C00000000C35C0100010001000624
:1007300031FF0974A1010975150026FF0095207588
:100740000881020976150026FF00952075089102A0
:10075000C005010980A101850319012AB70015010F
:1007600026B700950175108100C0050C0901A10193
:10077000850419012AA002150126A0029501751011
:100780008100C005010906A101050719E029E71547
:100790000025019508750181029501750881010503
:1007A00007190029FF150026FF009506750881002E
:1007B0000508190129059505750191029501750333
:1007C0009101C05B435D005B445D005B535D005B7A
:1007D000575D005B525D0009025B00030100A0FA57
:1007E0000904000001030101000921110100012297
:1007F00040000705810308000A0904010001030005
:1008000000000921110100012232000705820320A6
:10081000000A09040200020300000009211101007E
:10082000012222000705830320000107050303209E
:100830000001120100020000000810CB5622000245
:100840000102000126034B0065006500620069009B
:100850006F00200049007200690073002000520000
:10086000650076002E002000320000000E034B00D1
:1008700065006500620069006F0000000403090460
:100880000001010101010101010102020202020253
:100890000202020303030303030303040404040426
:1008A00004040505050505060606060607070707ED
:1008B0000708080808090909090A0A0A0B0B0B0CA2
:1008C0000C0C0D0D0D0E0E0E0F0F0F10101111113F
:1008D00012121313141415151616171718181919C0
:1008E0001A1A1B1B1C1D1D1E1E1F20202122222325
:1008F0002424252626272829292A2B2C2D2D2E2F66
:1009000030313232333435363738393A3B3C3D3E7C
:100910003F404142434445464748494A4C4D4E4F6B
:1009200050515354555658595A5B5D5E5F6162642D
:10093000656668696B6C6D6F7072737577787A7BBA
:100940007D7E8082838587888A8C8E8F9193959611
:10095000989A9C9EA0A2A3A5A7A9ABADAFB1B3B531
:10096000B7BABCBEC0C2C4C6C9CBCDCFD1D4D6D80D
:10097000DBDDDFE2E4E7E9EBEEF0F3F5F8FAFDFFAB
:100980007267626C69676874206D6F6465205B4E86
:100990004F454550524F4D5D3A2025750A0072670C
:1009A000626C69676874206D6F6465205B454550B3
:1009B000524F4D5D3A2025750A007267626C696777
:1009C000687420656E61626C65205B454550524FCE
:1009D0004D5D3A207267626C696768745F636F6E21
:1009E0006669672E656E61626C65203D2025750A1B
:1009F000007267626C69676874207365742068733D
:100A000076205B4E4F454550524F4D5D3A2025753F
:100A10002C25752C25750A007267626C69676874ED
:100A20002073657420687376205B454550524F4DA6
:100A30005D3A2025752C25752C25750A0072676294
:100A40006C69676874207261696E626F7720736584
:100A500074206873763A2025642C25642C25642C38
:100A600025750A00FFAA7F55407267626C69676846
:100A7000742074696D657220656E61626C65642EA8
:100A80000A0011241FBECFEFDAE0DEBFCDBF04B6EF
:100A900003FE27C080912D0390912E03A0912F0378
:100AA000B09130038730904BA740B04BD1F41092F7
:100AB0002D0310922E0310922F031092300314BEB8
:100AC00084B7877F84BF0FB6F894A89580916000A3
:100AD000886180936000109260000FBEE0E0F8E350
:100AE000099511E0A0E0B1E0E2E0F1E602C0059076
:100AF0000D92A43FB107D9F723E0A4EFB1E001C004
:100B00001D92AD32B207E1F70E94960F0C947F3030
:100B10000C940000FF93EF93E091F401F091F50144
:100B2000309709F00995EF91FF910895FC018591A7
:100B3000803011F0EFDFFBCF0895FF27E0E230E2D5
:100B400047FF0CC0419597FF09C0EDE26095709595
:100B500080959095611D711D811D911D27FF02C01B
:100B6000219530E350E2AA27660F771F881F991F4F
:100B7000AA1FA41710F0A41B63955A95A9F7AA30D1
:100B800008F0A95FA05DAF93F3956115710581052C
:100B9000910541F7ED3211F4EF93F395F21718F444
:100BA0003F93F395FBCF8F91B5DFFA95E1F7089569
:100BB000E991F9918591803021F0853219F0AADF11
:100BC000F9CF089520E0E89455915532C1F35033A0
:100BD00011F4689455915A3348F4505390F3220F0E
:100BE000022E220F220F200D250FF4CF0EF4219597
:100BF00089919991533619F3533729F1533559F1A6
:100C0000BC0188279927E8945C3621F48991999151
:100C100068945591543639F446EF7EF077FF0DC055
:100C20008FEF9FEF0AC055374AE039F0583540E161
:100C300021F0523642E009F00895FF93EF937DDFF3
:100C4000EF91FF91B7CFFF93EF93FC01819180303B
:100C5000B9F360DFFBCFFF93EF9368DFF1CFDF9352
:100C6000CF93CDB7DEB72596A3DFCF91DF9108955F
:100C70001F93CF93DF93CDB7DEB767970FB6F89486
:100C8000DEBF0FBECDBF4B8B5C8B6D8B7E8B8F8B96
:100C9000611110928D0286E09E01235F3F4FD901C2
:100CA000E82F1D92EA95E9F795E0FE017396D901C8
:100CB00001900D929A95E1F79C894E895F897B8915
:100CC0007D879E876F87598B488BF901DE011796C8
:100CD00001900D928A95E1F7CE0107960E9481213D
:100CE00081113EC086E0FE013796DE01119601902B
:100CF0000D928A95E1F7FF81E8856A857B8561150C
:100D0000710531F0EF3F31F481E0FF3F19F403C08A
:100D100081E001C080E080FD23C02091590230E0D5
:100D2000C90101968770992740918A0250E0841783
:100D3000950779F1F983EA837D836C8396E0929F2E
:100D4000D001939FB00D1124A65ABD4FFE013196DC
:100D500001900D929A95E1F7809359020E949019A3
:100D600016E080918A02909159028917F9F0189F34
:100D7000C0011124865A9D4F0E9481218823B1F021
:100D800080918A0290E001968770992780938A0269
:100D9000E8CF0E94D5231092590210928A02E3E50F
:100DA000F2E086E0DF011D928A95E9F767960FB6BB
:100DB000F894DEBF0FBECDBFDF91CF911F91089594
:100DC0008F929F92AF92BF92CF92DF92EF92FF925B
:100DD0000F931F93CF93DF93CDB7DEB72A970FB64C
:100DE000F894DEBF0FBECDBFFC010081D1808381AE
:100DF0009481892B39F01FEFD11206C091E00F3F8B
:100E000019F403C091E001C090E090FD0BC77F0191
:100E100085E0DE01169601900D928A95E1F7F701C3
:100E200022818E819F81222349F00E94E020182F89
:100E3000682F8E819F810E944F2303C00E9422232E
:100E4000182F2CE3129FF001112436E0D39EE00D01
:100E5000F11D1124E00FF11DEE0FFF1FE953FA4FB2
:100E600005911491F7018281882309F4E2C00E3BB9
:100E7000FCE51F07E1F058F40C3B3CE5130799F043
:100E80000D3B9CE5190709F0D4C080E00DC0003C83
:100E9000ECE51E0709F45EC098F1013C2CE5120751
:100EA00009F489C0C6C085E00E94CB1FBFC58091F0
:100EB000CF02982F969596959695A1F0915E990FF1
:100EC000990F990F8770892B8093CF02887F91E0CB
:100ED00009F490E08091CF0290FB80F98093CF02DB
:100EE0000E94C61F8091CE0280FF9DC08091CF02DC
:100EF0008695869586951F928F9384EF90E08BC0A0
:100F00002091CF02822F869586958695482F50E0B6
:100F10004530510554F48F5F982F990F990F990F11
:100F2000822F8770892B8093CF028091CF028160BE
:100F30008093CF020E94C61F8091CE0280FF73C0B3
:100F40008091CF028695869586951F928F938CE02F
:100F500091E061C01091CF0211708091CE0280FFAC
:100F60000CC01F921F9387E391E09F938F930E9481
:100F70002F060F900F900F900F901123C9F08091C2
:100F8000CF0280FF53C58E7F8093CF020E94C61F81
:100F90008091CE0280FF08C084E291E09F938F93FE
:100FA0000E942F060F900F9080E00E94611F3EC5A7
:100FB0000E94E81F3BC58091CF02282F26952695D9
:100FC00026952F5F2F71922F990F990F990F877088
:100FD000892B8093CF02263018F087708093CF0240
:100FE0008091CF02887F91E009F490E08091CF0258
:100FF00090FB80F98093CF020E94C61F8091CE02A1
:1010000080FF11C08091CF028695869586951F92AC
:101010008F938DE491E09F938F930E942F060F9002
:101020000F900F900F908091CF02869586958695B0
:10103000BCCF043F2CE5120749F406E221EE40EE56
:1010400064EF7CE5C7010E94D61EF0C4053F3CE575
:10105000130708F049C1093D9CE5190731F407E27F
:1010600025EE45EE69ED7CE5EDCF0A3DECE51E078A
:1010700031F408E221E045EE6AED7CE5E3CF083D7E
:10108000FCE51F0731F406E221EE41EE68ED7CE558
:10109000D9CF882309F45DC11092D20202303CE519
:1010A000130708F440C106318CE5180730F0C80179
:1010B0008B5F9C45099708F036C10E944A189093AF
:1010C00025028093240200319CE5190709F4C3C06E
:1010D00008F041C00830FCE51F0709F49AC0F0F49D
:1010E00004303CE5130709F487C068F402309CE53E
:1010F000190709F477C003301C4509F0E5C0809159
:101100002402826076C00630FCE51F0709F46EC039
:1011100008F07BC08091240288606BC00C303CE5F5
:10112000130709F485C068F40A309CE5190709F42F
:1011300074C008F079C00E94D52380912402806891
:1011400058C00E30FCE51F0709F476C008F07FC0D8
:10115000809124028BC00C3F3CE5130709F44FC07B
:1011600018F503319CE5190709F47DC078F40131C5
:10117000FCE51F0709F473C002311C4509F0A4C047
:101180000E94D523809124028F7733C005313CE53E
:10119000130709F472C008F486C00B3F1C4509F020
:1011A00093C0809125023EC00115EDE51E0709F4AC
:1011B0005FC058F40E3F2CE5120709F444C008F450
:1011C0003FC08091250282602DC002308DE5180756
:1011D00009F475C008F45DC003301D4509F074C002
:1011E00060E06EC080912402816003C0809124027F
:1011F00080618093240268C08091240211C0809194
:1012000025028260809325025FC080912402806263
:10121000F0CF809124028064ECCF8091240288601A
:101220008460E7CF8160EECF809124028E7FE1CF92
:10123000809124028D7FDDCF80912402877FD9CFDA
:101240008091250218C0809125028D7FDBCF80918F
:1012500024028F7ECECF809124028F7DCACF8091D1
:1012600024028F7BC6CF80912402877F8B7FC1CFE2
:10127000809125028D7F8E7FC5CF8091240282FBD5
:10128000222720F991E0922790FB82F990FB83F9C5
:10129000B0CF80912502982F909591708E7F892BE9
:1012A00090FB81F9AFCF0E94D5238091240287FB68
:1012B000222720F991E0922790FB87F99ACF61E0ED
:1012C0008EE090E00E947D2F609124021091250213
:1012D00084E090E00E947D2F612F82E290E00E94E6
:1012E0007D2F0E94D523A2C3063F2CE5120731F4BF
:1012F00006E221EE42EE66EF7CE5A4CE063F3CE539
:10130000130730F407E225EE44EE65EF7CE59ACE54
:10131000073F9CE5190709F0BCCE07E225EE46EE33
:1013200067EF7CE58FCE0631ECE51E0721F5809155
:101330008E028A7A91E009F490E09093F601882376
:1013400011F065E301C069E28BE492E00E94801E27
:101350000FC00631FCE51F0709F068C08091F60157
:10136000882309F482C365E38BE492E00E94731E34
:101370000E94DD185BC30F3D2CE5120709F447C03E
:1013800040F401158CE5180799F001301C4561F116
:1013900069C00C35EDE51E0709F444C00D35FDE5C7
:1013A0001F07C1F10B351D4509F05CC081E03BC052
:1013B0000E94D5233FEF84E39CE031508040904071
:1013C000E1F700C0000087E797E79093010880935A
:1013D00000089AE088E10FB6F894A8958093600021
:1013E0000FBE90936000FFCF8091CE02982F909512
:1013F000917090FB80F98093CE02992319F082EED0
:1014000091E002C080ED91E00E9496050FC30E941A
:101410005B180CC38091250282FB882780F991E03C
:10142000892701C080E00E9447191CC080918E026C
:1014300082720D3CFCE51F0709F4D4C308F0DFC23B
:10144000073C3CE5130709F4B9C308F01EC3043C8C
:10145000ECE51E0709F4A8C308F009C3033C1C45CA
:1014600009F454C3F70182810081D180882359F0A7
:10147000802F9D2D0E94E020182F682F802F9D2DFA
:101480000E944F2305C0802F9D2D0E942223182FDC
:101490002CE3129FF001112436E0D39EE00DF11DE4
:1014A0001124E00FF11DEE0FFF1FE953FA4F859154
:1014B00094910E94C1168C01982EF701B280A580EC
:1014C000A2943FE0A32280918B02877099F0BB2009
:1014D00089F0812F807F803421F080E2800F883076
:1014E00048F082E00E94731980918B028770DD249E
:1014F000D3948111D12CC12EC2949FE0C9228C2D8E
:1015000090E08C30910508F03DC2FC01EA5AFF4F93
:101510000C942530812F807F1F70882311F0129545
:10152000107FBB20B9F0112309F417C280E2800FAD
:10153000883010F0911006C080918E02182B109305
:101540008E0205C080918D02182B10938D020E948F
:10155000DD1803C2802F0E94F523112309F412C263
:10156000005E1095083010F0911006C080918E0238
:10157000182310938E0205C080918D0218231093BA
:101580008D020E94DD18FEC1812F807F1F70803286
:1015900011F01295107F992021F0F1E09F1601F1D2
:1015A0002EC0BB20A1F080918F02AA2071F001E033
:1015B000A0120BC0182B9091250292FDE3C11817C1
:1015C00009F4E0C110938F02DDC1812B10C0AA2065
:1015D00021F021E0A21609F4D5C10E94D71827C036
:1015E000BB2041F035E03A1508F4CCC1812F0E94B0
:1015F000EB23C8C184E08A1508F4C4C118C0BB201D
:1016000049F0AA2099F3F701858180FFA6C18F7068
:101610008583ECCFAA2059F0093309F0B0C1FFEF60
:1016200017EE23E0F15010402040E1F7A6C1812FD2
:101630000E94E023A7C1812F86958695837019F0BB
:10164000813059F09FC1BB2019F0C801937002C0CE
:1016500080E090E00E94B01E9BC1BB2019F0C80141
:10166000937002C080E090E00E949A1E91C1812F89
:10167000837009F069C0B11089C1902F9295969539
:101680009770990F990F802F8F70882E912CA12C15
:10169000B12C092E04C0880C991CAA1CBB1C0A94EE
:1016A000D2F704FF12C04FE050E060E070E004C0E9
:1016B000440F551F661F771F9A95D2F7DB01CA01A9
:1016C00080959095A095B09503C080E090E0DC01F6
:1016D00016951695412F4370423019F1C8F40091C8
:1016E0009002109191022091920230919302413028
:1016F00059F088299929AA29BB29BC01CD01602369
:101700007123822393230AC0802A912AA22AB32A12
:10171000BC01CD01682979298A299B290E94CB2304
:1017200035C188299929AA29BB29009190021091D5
:1017300091022091920230919302BC01CD01602769
:10174000712782279327EACFBB2019F0812F817060
:1017500001C08695882309F419C1902F929596951A
:101760009770990F990F802F8F70882E912CA12C34
:10177000B12C092E04C0880C991CAA1CBB1C0A940D
:10178000D2F704FF12C04FE050E060E070E004C008
:10179000440F551F661F771F9A95D2F7DB01CA01C8
:1017A00080959095A095B09503C080E090E0DC0115
:1017B00016951695412F43704230D9F068F5009187
:1017C0002002109121022091220230912302413007
:1017D00059F088299929AA29BB29BC01CD01602388
:1017E0007123822393231EC0802A912AA22AB32A1E
:1017F00013C088299929AA29BB2900912002109198
:1018000021022091220230912302BC01CD016027E8
:1018100071278227932706C0BC01CD016829792949
:101820008A299B290E947B23B1C01F70BB2039F0FD
:10183000812F0E94AA23802F0E94EB23A7C0802F14
:101840000E94E023812F0E948523A0C0802F32EFC9
:10185000931609F440C0391538F090EF991661F0ED
:10186000E1EF9E1699F174C0F3EF9F16D9F124EFC2
:10187000921609F44EC06CC0BB2019F134E03A1541
:1018800008F480C01F7181E090E0A0E0B0E0AC01FE
:10189000BD0104C0440F551F661F771F1A95D2F76C
:1018A0008091200290912102A0912202B091230206
:1018B0008A019B01082719272A273B27C901B8015C
:1018C00025C025E02A1508F45DC0DCCFBB2029F037
:1018D000812F8F7130C0BB20D9F3812F8F710E946F
:1018E000852350C0BB2079F01F7181E090E0A0E01B
:1018F000B0E0BC01CD0104C0660F771F881F991F9F
:101900001A95D2F703C060E070E0CB010E947B2300
:1019100039C0BB2099F01F71812F0E94AA238091AA
:10192000250282FD07C038E0139FC00111248360A7
:1019300080938B02812F0E94AA2324C081E00E9401
:10194000731981E08A15F0F482E00E9473191AC0BD
:10195000BB2039F0AA2009F4BBCF802F0E9451246C
:1019600011C0AA2009F4B9CF893349F49FEFE7EEFB
:10197000F3E09150E040F040E1F700C00000802F1C
:101980000E94F52388EF8C0D843010F40E94C61E4F
:10199000DD20A9F080918B0280FD11C0F701128239
:1019A0008595859585950E94AA23C7010E94E0062A
:1019B00080918B028595859585950E94852385E08C
:1019C000F701DE01119601900D928A95E1F7898168
:1019D0009A810E9422239A810CE3809FF0011124B6
:1019E00016E0919FE00DF11D11248981E80FF11D92
:1019F000EE0FFF1FE953FA4F8591949113C1023DF9
:101A0000FCE51F0709F4FEC008F461C0053DFCE5D4
:101A10001F0709F4FDC008F46DC0063D9CE51907D9
:101A200009F4FBC00E351D4509F01CCD80918B02D9
:101A3000877009F4F7C0F7018281882309F4F2C0A6
:101A400082E02A960FB6F894DEBF0FBECDBFDF91BD
:101A5000CF911F910F91FF90EF90DF90CF90BF90AB
:101A6000AF909F908F900C94731969E27DCC053CE8
:101A70003CE5130709F49DC0063C1C4509F0F2CC77
:101A800049EA5CE262EB7CE2B1C00A3CECE51E078D
:101A900009F49EC070F4083C2CE5120709F493C0C9
:101AA000093C1C4509F0DECC4DE95CE261E97CE2D1
:101AB0009DC00B3C9CE5190709F48FC00C3C1C45EC
:101AC00009F0D0CC4BE95AE26CEA7AE28FC00F3CC5
:101AD0003CE5130709F490C008F48BC0003D9CE579
:101AE000190709F48CC0013D1C4509F0BBCC6EE020
:101AF00089E090C0033D3CE5130709F486C0043D2E
:101B00001C4509F0AFCC61E088E189C08091CE022C
:101B100080FF10C08091C902809581701F928F93C1
:101B200089E991E09F938F930E942F060F900F9069
:101B30000F900F908091C90280FF33C08E7F8093F9
:101B4000C9026091C9027091CA028091CB02909142
:101B5000CC020E94892A8091CE0280FF0FC0809122
:101B6000C90281701F928F9381E691E09F938F93BA
:101B70000E942F060F900F900F900F900E945220FE
:101B80008091A10281608093A102FFEF00E712E043
:101B9000F15000401040E1F700C000000E940F2A01
:101BA00045CF0E941A2D42CF46E35DE26FE37DE20E
:101BB0001DC04FE35DE266E37DE218C042EB5CE2EC
:101BC00069EA7CE213C041E95CE26DE97CE20EC0A7
:101BD00049E75CE265E87CE209C045E85CE269E768
:101BE0007CE204C04CEA5AE26BE97AE20E944C20A3
:101BF0001DCF61E081E013C065E082E00BC068E0CA
:101C000086E008C064E18FE005C067E185E102C0BD
:101C100062E289E10E943A2009CF61E083E20E94FA
:101C2000BB2C04CF2A960FB6F894DEBF0FBECDBFF3
:101C3000DF91CF911F910F91FF90EF90DF90CF90A8
:101C4000BF90AF909F908F9008958295982F937337
:101C500044E0949F900111248C7C86958695282BD6
:101C6000822F8575880F2A7A2695822B08950F93E7
:101C70001F93CF93DF93CDB7DEB728970FB6F894B5
:101C8000DEBF0FBECDBF85E0E9ECF2E0DE011196CC
:101C900001900D928A95E1F780919F029091A002A8
:101CA000A091A1028E839F83A88741E0888581113E
:101CB00001C040E008E010E09E012F5F3F4F6CE163
:101CC00072E084E00E94101481111092A102289603
:101CD0000FB6F894DEBF0FBECDBFDF91CF911F913D
:101CE0000F9108950F931F93CF93DF931F92CDB75A
:101CF000DEB78091CF0280FF04C0869586958695D9
:101D000001C080E0898341E090910B02981301C0EB
:101D100040E001E010E09E012F5F3F4F68E172E07C
:101D200083E00E9410140F90DF91CF911F910F91CB
:101D30000895CF93DF9300D000D0CDB7DEB74091A8
:101D400014025091150260911602709117022FB77C
:101D5000F8948091DE029091DF02A091E002B091B0
:101D6000E1022FBF841B950BA60BB70B84369105A0
:101D7000A105B10580F10E944F1EDC01CB01029646
:101D8000A11DB11D89839A83AB83BC838091170108
:101D9000909118018F5F9D4F4091160150E04530A2
:101DA000510510F044E050E0BE016F5F7F4F0E948C
:101DB000763082E090E00E94B12E892B11F080E015
:101DC0000BC00E940E1E6093140270931502809344
:101DD00016029093170281E00F900F900F900F90D2
:101DE000DF91CF910895EF92FF921F93CF93DF93EE
:101DF00000D000D000D0CDB7DEB77B0180E090E00E
:101E00000E94B12E892B09F065C04091050150E078
:101E10004115510511F041E050E0609106017091CB
:101E200007016F5F7D4FCE0106960E94763040918C
:101E3000FD015091FE016091FF01709100022FB7EA
:101E4000F8948091DE029091DF02A091E002B091BF
:101E5000E1022FBF841B950BA60BB70B84369105AF
:101E6000A105B10538F482E092E00E94ED249E8144
:101E7000891791F181E090E00E94B12E892BA1F4A5
:101E800040910F0150E04630510510F045E050E020
:101E900060911001709111016F5F7D4FCE0101962D
:101EA0000E94763011E001C010E082E092E00E94D2
:101EB000ED2491E02E81281390E0192311F10E9466
:101EC0000E1E6093FD017093FE018093FF019093BD
:101ED00000020CC010E001C011E085E0E2E0F2E099
:101EE000DE01119601900D928A95E1F7112349F0D8
:101EF00085E0FE013196A8EFB1E001900D928A9540
:101F0000E1F785E0E8EFF1E0D70101900D928A95C5
:101F1000E1F7812F26960FB6F894DEBF0FBECDBF36
:101F2000DF91CF911F91FF90EF900895CF93DF93B2
:101F3000CDB7DEB72D970FB6F894DEBF0FBECDBF7D
:101F400084B7877F84BF0FB6F894A895809160000E
:101F5000886180936000109260000FBE90E080E87E
:101F60000FB6F89480936100909361000FBE85B71F
:101F7000806885BF85B7806885BF8FE999E19093B8
:101F8000F5018093F4010E943F280E945E28809111
:101F9000E20084608093E200789480911D0388239E
:101FA000A1F01091E9001F709091EC00892F8170D1
:101FB00090FD80E8182B1092E9008091E80083FDE5
:101FC0000E9430251F701093E90082E084BD93E0E9
:101FD00095BD9AEF97BD80936E001092D902109232
:101FE000DA021092DB021092DC020E9470148093DD
:101FF000320180913201882321F01092400186E065
:1020000003C086E080934001809341010E947014D8
:1020100081110E94A42D80913201809132018111A1
:1020200002C095E001C090E09093310285E0891BE9
:102030008093300203E511E0F80181918F018F3F19
:1020400011F00E949314F1E008351F07A9F70DE580
:1020500011E0F80181918F018F3F11F00E949314DC
:10206000F1E003361F07A9F7E6E2F2E0A3E3B2E0EE
:1020700011921D9222E0E033F207D1F780E090E068
:102080000E94772F893E9E4F11F00E945B1882E0DC
:1020900090E00E94692F8093CE020E944A1890938C
:1020A00025028093240283E090E00E94692F682F2C
:1020B00070E080E090E00E94CB23259A2D9882E882
:1020C0008093800089E1809381008FEF9FEF909350
:1020D0008700809386000E940C200E94701481115A
:1020E00002C00E94A72D0E940C2080913202811113
:1020F000EAC08091CE0280FF08C085E393E09F9301
:102100008F930E942F060F900F908091CE0280FF38
:1021100008C08FE193E09F938F930E942F060F904A
:102120000F9080E090E00E94772F893E9E4F81F0D3
:102130008091CE0280FF08C087EF92E09F938F933B
:102140000E942F060F900F900E945B180E94BD2ADC
:1021500088E090E00E94712F6093C9027093CA02D8
:102160008093CB029093CC028091A10283608093F4
:10217000A1026E7FD1F48091CE0280FF08C08EEA6A
:1021800092E09F938F930E942F060F900F900E94D2
:10219000BD2A88E090E00E94712F6093C90270937D
:1021A000CA028093CB029093CC020E94762A80913F
:1021B000CE0280FF08C085E992E09F938F930E9432
:1021C0002F060F900F908091CE0280FF0FC080915C
:1021D000C90281701F928F9388E792E09F938F933B
:1021E0000E942F060F900F900F900F908091CE02BB
:1021F00080FF0FC08091C90286951F928F938DE555
:1022000092E09F938F930E942F060F900F900F9054
:102210000F908091CE0280FF0EC08091CA021F9263
:102220008F9383E492E09F938F930E942F060F90E9
:102230000F900F900F908091CE0280FF0EC0809182
:10224000CB021F928F9389E292E09F938F930E941B
:102250002F060F900F900F900F908091CE0280FF6D
:102260000EC08091CC021F928F938FE092E09F93DB
:102270008F930E942F060F900F900F900F908091D8
:10228000CE0280FF0EC08091CD021F928F9383EF0C
:1022900091E09F938F930E942F060F900F900F90C5
:1022A0000F901092A0028091A10284608093A102FD
:1022B0008091C90280FF04C060E086950E94BB2C1B
:1022C00081E08093320283E391E09093D602809381
:1022D000D5028CE493E00E94960518E1212E312C62
:1022E00007E6402E03E0502E8FE5682E83E0782E1F
:1022F00080911D03853009F04BC080ED93E00E9472
:10230000960500E112E180911D03853009F03AC085
:1023100080911D03843029F180E00E94611F10929A
:10232000DD0280E40FB6F894A895209260000FBEFD
:102330008093600083B7817F846083BF83B78160AF
:1023400083BF7894889583B78E7F83BF0FB6F89448
:10235000A895809160008861809360001092600071
:102360000FBE80911C03882309F4CDCF0E94AA14CC
:10237000E3E3F2E0819181119FC192E0ED33F9072F
:10238000C9F7C1CF0E94D5230E940C200E94C61E0F
:102390000E94AA1481110E940E1EA1E4AA2EA2E09E
:1023A000BA2EB3E3CB2EB2E0DB2E00E010E00D87B7
:1023B000F60121916F012C87F50181915F0128279A
:1023C0002B87211116C00F5F1F4F0A30110579F7B7
:1023D0008FEF8E838F8318860E941A1E8160782F5C
:1023E0009A8789874E815F8168858A850E94380631
:1023F00060C08091CE0281FD04C0E12CFF24F394E3
:1024000036C08CE693E00E949605F3E38F2EF2E04F
:102410009F2EE12CF12CFF92EF925F924F920E943F
:102420002F0684E693E00E949605F40181914F0106
:102430000E94250E1F928F937F926F920E942F060B
:102440008DE593E00E949605FFEFEF1AFF0A0FB6A5
:10245000F894DEBF0FBECDBF5AE0E516F104D9F601
:10246000CCCFE394FF0C96E0E91609F4ACCF8B8552
:102470008F21B9F30E9470148823A9F0E9828D8519
:102480008A839C859F2181E009F480E08B830E94F0
:102490001A1E8160782F9D838C8349815A816B81BC
:1024A0008D810E943806F801EF5BFD4F8081F82690
:1024B000F0828091A002882309F4CFC080919F020E
:1024C000E091C902E695E81BE0932903823059F4B4
:1024D000F0E0EE54FC4FE4910E2F10E0E0EEEE2E13
:1024E000ECE1FE2E59C0863059F4F0E0E155FC4F86
:1024F000E4910E2F10E070EDE72E7CE1F72E4CC03A
:10250000893061F4E695F0E0E455FC4FE4910E2F3C
:1025100010E065E5E62E6CE1F62E3EC08F3061F4EA
:10252000E695F0E0E755FC4FE4910E2F10E059EBF3
:10253000E52E5BE1F52E30C0853159F4F0E0EA5527
:10254000FC4FE4910E2F10E043E3E42E4BE1F42E18
:1025500023C08831A1F0833249F4E4EAF3E0059125
:10256000149130E9E32E3CE1F32E16C0843271F46D
:1025700004EF11E021E6E22E2AE1F22E0DC008E27E
:1025800010E090EAE92E9AE1F92E06C000ED17E07E
:102590008AE9E82E89E1F82E80912A03882361F0E8
:1025A00010922A030E946A1E9093280380932703A7
:1025B00010922C0310922B030E946A1E2091270375
:1025C00030912803FC01E21BF30B9F012F3F3F4793
:1025D00008F043C020913F02222311F110923F02E4
:1025E00020913D0230913E02821B930B8F3F9F470B
:1025F000B8F4205D3A4830933E0220933D0280912A
:10260000CE0280FF08C08BE793E09F938F930E94D8
:102610002F060F900F908091A10288608093A102F5
:10262000C0902B03D0902C03E0912703F091280356
:102630000E0F1F1F109328030093270387E293E0D8
:10264000F701099580912B0390912C03892B29F494
:10265000CD2819F081E080933F020E94C61E909120
:102660004002891709F444CE0E94C61E182F809399
:1026700040028091CE0282FF3BCE80FF04C08DEBF2
:1026800093E00E9496058091CE0280FF0CC01F92BD
:102690001F9388EB93E09F938F930E942F060F90D8
:1026A0000F900F900F908091CE0280FF21CE86EB8D
:1026B00093E00E9496051CCE09BD19BD09B400FE29
:1026C000FDCF8091D8008F7D8093D8008091E0006D
:1026D00082608093E0008091E00081FDFCCF0E9449
:1026E000D52311CE9091240292FF0DC0282F28717E
:1026F000283019F4877F846006C0282F2471243085
:1027000011F48B7F886093FF0DC0282F287128312A
:1027100019F4877E846106C0282F2471243111F4B6
:102720008B7E88612091250220FF0DC0382F3871E3
:10273000383019F4877F816006C0382F317131300D
:1027400011F48E7F886021FF0DC0282F2871283159
:1027500019F4877E816106C0282F2171213111F47F
:102760008E7E886194FD877E08958F929F92AF92AE
:10277000BF92CF92DF92EF92FF920F931F93CF936E
:10278000DF937C015B01942E852E690180919E026E
:102790008A3018F001E010E002C00AE010E0C1E069
:1027A000D0E0F894B501C701F6010995789481113C
:1027B00029C021960C171D078CF0CC9F9001CD9F4E
:1027C000300D300D112480E090E045E34A95F1F79B
:1027D0000000019628173907C1F7E3CF9091CE0288
:1027E000892F817090FF0FC08F929F9286E894E0AE
:1027F0009F938F930E942F060F900F900F900F9032
:1028000080E001C081E0DF91CF911F910F91FF9097
:10281000EF90DF90CF90BF90AF909F908F900895F2
:102820008F929F92AF92BF92CF92DF92EF92FF92E0
:102830000F931F93CF93DF93FB0180809180A28041
:10284000B3809FB7F894C090DE02D090DF02E09092
:10285000E002F090E1029FBFC818D908EA08FB081F
:10286000F4E6CF16D104E104F10410F4442351F14D
:102870007B01C82F880FDD0B01151105A9F08AE037
:102880008C9FF0018D9FF00D1124E050FF4F83814C
:1028900094818F5F9D4F428150E00417150708F423
:1028A000A801B9010E947630CE010E94B12E892B79
:1028B00011F080E008C00E940E1EF7016083718352
:1028C0008283938381E0DF91CF911F910F91FF90DD
:1028D000EF90DF90CF90BF90AF909F908F90089532
:1028E00080919D02811118C08091D80080618093F1
:1028F000D8008AE18A95F1F700C08091D90080FD67
:1029000002C082E001C081E080939D02823021F408
:102910000E943F2810921D0381E090919D0291300A
:1029200009F080E00895F894E82FE295EF70F0E068
:1029300031A1282F2F7081E090E001C0880F2A95E7
:10294000EAF7982F9095932391A392A1892B82A3C4
:10295000789408957F928F929F92AF92BF92CF9278
:10296000DF92EF92FF920F931F93CF93DF93CDB738
:10297000DEB72F970FB6F894DEBF0FBECDBFAE0106
:102980004F5F5F4F7A018AE0DA011D928A95E9F77D
:1029900003E511E06A0188E5882E81E0982EAA24DB
:1029A000A394B12CF80180818F3F09F448C0F894BA
:1029B000E82FE295EF70F0E021A18F70A50102C031
:1029C000440F551F8A95E2F7CA01922F982B91A3C5
:1029D00092A18095892382A3789400C0EDE5F1E06F
:1029E00020E030E0712C81918F3FB9F0A82FA295A3
:1029F000AF70B0E090964C9150E08F70DA0102C059
:102A0000B595A7958A95E2F7A0FD07C08A2D022EFD
:102A100001C0880F0A94EAF701C080E0782A2F5F8E
:102A20003F4F26303105F9F6F80180818F3F11F0D4
:102A30000E949314F0EAFA95F1F7D6017C920F5FA9
:102A40001F4FBFEFCB1ADB0A8016910609F0AACF01
:102A50004AE050E0B70186E292E00E9469308C01C2
:102A6000892B41F08AE0F701A6E2B2E001900D92D5
:102A70008A95E1F7F09031020115110549F081E0E6
:102A8000809396020E941A1E90939502809394025E
:102A9000809196028823B9F08091940290919502DA
:102AA0000E94FF1D059778F0A6E2B2E0EF2DF0E05E
:102AB000ED5CFD4F8BE292E02D9121938A179B07ED
:102AC000D9F7109296020115110509F0FAC00E947B
:102AD0007014E0913102882309F449C07E01FBE0C3
:102AE000EF0EF11C85E0D7011D928A95E9F70E2FB4
:102AF00010E00D5C1D4FD0909E02B9E0BD1560F056
:102B000023EF3EE043E651E0B701C8010E94B51350
:102B1000882309F4FBC00AC0809197029091980223
:102B20000E94FF1D843F914058F709C129E93EE00A
:102B300040E751E0B701C8010E94B513882309F4AA
:102B4000E5C022E73EE04BE751E0B701C8010E9433
:102B5000B513882309F4DAC027E33EE045E851E0E5
:102B6000B701C8010E94B5138111AEC0CFC0F0E01B
:102B7000ED5CFD4FF89485E0A2E0B2E001900D928B
:102B80008A95E1F782E092E00E94ED2480930102B1
:102B90007894F894C0900702D0900802E09009025F
:102BA000F0900A028091990290919A02A0919B0262
:102BB000B0919C02C816D906EA06FB06D1F0C09275
:102BC0009902D0929A02E0929B02F0929C020E949B
:102BD000701481110EC00E940E1EC61AD70AE80A90
:102BE000F90AC092D902D092DA02E092DB02F092A6
:102BF000DC027894F89480910B020E94611F789413
:102C0000F89480911302882309F459C080FF34C0DE
:102C100090910C028091C90290FF09C0816080935D
:102C2000C90260E0892F86950E94BB2C25C08E7F4B
:102C30008093C9028091CE0280FF0CC01F921F9228
:102C40008CE494E09F938F930E942F060F900F9037
:102C50000F900F900E9452208091A102816080937A
:102C6000A102FFEF20E742E0F15020404040E1F7B1
:102C700000C000000E940F2A8091130281FF09C04A
:102C800020E040910F0260910E0280910D020E949F
:102C9000842B8091130282FF09C080911202882345
:102CA00019F00E94E82902C00E945220809113026C
:102CB00083FF03C081E080932A031092130278946B
:102CC0004BC001E010E048C059E05D1540F4809130
:102CD000CE0280FF04C083E094E00E94960510922B
:102CE0009E02E0913002F0E0ED5CFD4FD7019E01C5
:102CF000205F3F4F00E08D919081981711F0808305
:102D000001E031962A173B07B1F726C080919E0259
:102D10008F3F19F08F5F80939E0280919E028A30D0
:102D200000F30E941A1E909398028093970280915C
:102D3000CE0280FF04C086E194E00E949605E091F7
:102D40003002F0E0ED5CFD4F80E090E011920196E2
:102D500085309105D9F701E0802F2F960FB6F894B2
:102D6000DEBF0FBECDBFDF91CF911F910F91FF90BE
:102D7000EF90DF90CF90BF90AF909F908F907F901B
:102D80000895CF93DF938238910569F1B0F48133D0
:102D9000910509F46FC048F48932910509F465C0C2
:102DA0008A32910509F46BC08AC08533910509F414
:102DB00057C089339105B9F082C0833E910571F106
:102DC00038F4803E9105B1F0823E910511F177C053
:102DD000863E9105B9F1873E9105C9F1843E910582
:102DE00009F06DC024C02091240220FD53C021FDB4
:102DF00051C065C08091240280FD46C080912502AB
:102E000080FF48C08091240284FD3FC183EE90E0A2
:102E10003EC18091240282FF3AC0F4CF8091240207
:102E200082FD35C08091250280FD34C0EBCF8091BA
:102E3000250281FF35C08091240284FD26C187EEE2
:102E400090E025C18091240283FF27C0F4CF8091B8
:102E5000240283FD22C08091250281FD21C0EBCF99
:102E60008091240285FD1FC021C08091240285FD30
:102E70001DC019C08091240286FD1BC01DC0809119
:102E8000240286FD19C015C089E390E000C182EEDE
:102E900090E0FDC080EE90E0FAC086EE90E0F7C0D2
:102EA00084EE90E0F4C089E290E0F1C085E390E028
:102EB000EEC08AE290E0EBC081E390E0E8C08115CB
:102EC00032E5930708F069C0811541E5940728F0C1
:102ED000982F8827816F906ADAC0883E910568F53F
:102EE000803E910508F0D3C0883A9105B8F4853A40
:102EF000910548F0855AE82FF0E0E257FE4F8081B7
:102F000090E09064C4C08130910509F4BBC008F41E
:102F1000BCC08430910508F4B8C0B9C08F3B91059E
:102F200008F0B3C0885AE82FF0E0EE0FFF1FEF560D
:102F3000FE4F808191819464AAC0811520E592079B
:102F4000F0F09C0174E0369527957A95E1F7922F81
:102F50009370482F437021E030E002C0220F331FEE
:102F60004A95E2F73C68392B8F70982F9695969585
:102F700040E2949FC0011124822B932B88C08115BD
:102F800030E4930718F09F70906A81C09C013A95D5
:102F900021153F4108F47BC078C0EC01C11586E5DE
:102FA000D807E8F5C11525E5D20748F08C2F0E9417
:102FB00072138F7190E0982F8827906268C0C115B6
:102FC00034E5D30728F09C2F8827846F906A5FC070
:102FD000AE01437055272C2F26952695C115D34554
:102FE00078F481E090E002C0880F991F4A95E2F7DB
:102FF00040E2249F90011124822B932B9C6847C0B0
:1030000081E090E002C0880F991F4A95E2F740E204
:10301000249F90011124822B932B9A6838C0C115EC
:103020002AE5D207F8F4C11539E5D30790F08C2FC3
:103030008F700E94721394E0D695C7959A95E1F728
:10304000CF70D0E0DC2FCC27D0699E01282BC9019E
:103050001EC0C11548E5D407C0F09C2F8827806F9B
:10306000906A15C0CE0190568115904270F48D2F54
:103070008F710E947213282F2F71CE0199279062B1
:10308000922B05C081E090E002C080E090E0DF91EB
:10309000CF910895CF9384E090E00E94692FC82FCC
:1030A00082E290E00E94692F2C2F30E0A901582B7A
:1030B000CA01CF91089569EE7EEF80E090E00E9412
:1030C0009B2F60E082E090E00E947D2F60E083E033
:1030D00090E00E947D2F1092900210929102109227
:1030E00092021092930260E084E090E00E947D2FB3
:1030F00060E082E290E00E947D2F60E085E090E059
:103100000E947D2F60E086E090E00E947D2F6FEFAF
:1031100087E090E00E947D2F40E050E0BA0188E017
:1031200090E00E948F2F60E08DE090E00E947D2F64
:1031300040E050E0BA0188E190E00E948F2F60E00B
:1031400087E190E00E947D2F40E050E0BA018CE1E1
:1031500090E00E948F2F60E070E080E290E00E949B
:103160009B2F40E050E0BA0188E190E00E948F2F51
:103170000E94E81F83E00E94CB1F0E941A2D21E0CD
:103180004FEF6FEF80E00E94842B61E08BE00E94A4
:10319000BB2C40E050E0BA018FE090E00E948F2FFE
:1031A00040E050E0BA0183E190E00C948F2F8091D1
:1031B0008F02811110928F020895EF92FF920F9368
:1031C0001F93CF9390918E0280918D02892B209135
:1031D0008C02982F922B90934B0280918F02882320
:1031E00089F0892B80934B02EDE4F2E097E080E0D8
:1031F000915029F021912223D9F38F5FF9CF8111CA
:103200000E94D718E091D502F091D6023097C9F10B
:103210000280F381E02D8BE492E009958091CE024B
:1032200082FF2FC080FF04C081EF93E00E949605CB
:103230000BE412E0C8E08BEEE82E83E0F82E8091DC
:10324000CE0280FF0CC0F80180811F928F93FF9205
:10325000EF920E942F060F900F900F900F90C15089
:103260000F5F1F4FC111EBCF8091CE0280FF09C0CD
:1032700089EE93E0CF911F910F91FF90EF900C9406
:103280009605CF911F910F91FF90EF900895CF93E6
:10329000DF93C0912502C2FB992790F9981701F19D
:1032A000D82F80FBC2F9C09325026091240284E0EC
:1032B00090E00E947D2F6C2F82E290E00E947D2F93
:1032C0008091CE0280FF0CC01F92DF9384ED93E0CB
:1032D0009F938F930E942F060F900F900F900F9047
:1032E000DF91CF91089520918B0280958223809366
:1032F0008B02982F977041F430E0482F082E000C75
:10330000550B2417350721F49091250292FF07C031
:103310008595859585950E94852310928B02089549
:1033200080918A0290915902891719F08F5F8770F6
:10333000FBCF0895089508958091120308959FB7D3
:10334000F89410920E039FBF90911D03943009F0E2
:1033500057C09091E9009F703091EC00232F2170AD
:1033600030FD20E8922B23E02093E9002091EB0030
:1033700020FF43C02091EE0027FF3FC02091E502CF
:10338000222321F02091E80025FF37C01092E502AA
:1033900026E03091E80035FD15C030911D03343032
:1033A00061F53091EB0035FD28C0215021F481E01A
:1033B0008093E50222C0EFE9FFE03197F1F700C00A
:1033C0000000E7CF8093F1008091E80085FD0AC0FE
:1033D0008091E80080FFFCCF8091E8008E77809399
:1033E000E80006C08FB7F89421E020930E038FBF4A
:1033F0009F709093E90080E008959F709093E9009A
:103400008FEF089590911D03943031F58093E2027F
:103410007093E4026093E30282E08093E9008FEF0F
:103420009091E800815095FD06C095ED9A95F1F7D1
:1034300000008111F5CF8091E80085FF0DC040E0CC
:1034400050E063E070E082EE92E00E9404258091FB
:10345000E8008E778093E8000895BC0184E00C9426
:10346000021ABC0183E00C94021ACF93DF9321E08F
:103470002093E9002FEF3091E800215035FD06C080
:1034800035ED3A95F1F700002111F5CF2091E800D4
:1034900025FF14C0EC0140E050E068E070E00E94BD
:1034A00004258091E8008E778093E80088E0FE0193
:1034B000A3E1B3E001900D928A95E1F7DF91CF91FE
:1034C00008950F931F93CF93DF93EC0100E010E07A
:1034D00080914401282F30E00217130724F59091C2
:1034E00042019801290F311DA901440F551F240FD6
:1034F000351F2B553D4F869590E04C8108171907D5
:103500001CF4442331F002C0411103C04091CC02AD
:1035100001C040E06091CB028091CA020E94D42A8F
:103520000F5F1F4FD5CF0E940F2A8C8190E001962C
:10353000817099278C83DF91CF911F910F9108950E
:103540008F929F92AF92BF92CF92DF92EF92FF92B3
:103550000F931F93CF93DF938C01FC014481C42F01
:10356000D0E09E01DE010E9433309B01AC010E943D
:1035700049306B017C01E0E2F0E0EC1BFD0BA5E5BE
:10358000B0E09B01AC010E9449304B015C019F01FE
:10359000DF010E942B309B01AC010E9454309B0143
:1035A000AC012C0D3D1D4E1D5F1DC501B4010E94D7
:1035B0000330C22FD22F2A3228F4F3E02F9F90013C
:1035C00011240DC025E530E02C1B3109C901880FFD
:1035D000991F280F391F37FF02C02F5F3F4F3595C6
:1035E0002795C22FC095F12C85E5E82EED1A809124
:1035F0004401F816C8F4F1FC02C08E2D01C08D2FD5
:10360000909142012F2D30E0290F311DA901440F67
:10361000551F240F351F2B553D4F4C2F6091CB026A
:103620000E94D42AF394E3CF0E940F2AF8018481E8
:10363000811102C091E003C0803219F49FEF909392
:103640003F0190913F01890FF8018483DF91CF9171
:103650001F910F91FF90EF90DF90CF90BF90AF90B0
:103660009F908F9008951F93CF93DF93EC018C81EF
:10367000811109C081E08C831092A30292E09093A3
:103680003E0180933D018091420190914301891751
:1036900070F4E82FF0E09F01220F331FE20FF31FB9
:1036A000EB55FD4F1182108212828F5FF0CF10E038
:1036B000609144011617C0F5E12FF0E070E0CF01F2
:1036C0000E94EF2F20914201820F2091A302022E2F
:1036D000000C330B90E0E217F307CCF020913E0191
:1036E000022E000C330B2E173F078CF09C01220F8B
:1036F000331F820F931F9C012B553D4F4091CC02ED
:103700006091CB028091CA020E94D42A0BC0FC01B6
:10371000EE0FFF1F8E0F9F1FFC01EB55FD4F118217
:10372000108212821F5FC4CF0E940F2A80913D0138
:103730002091A302280F2093A30290913E01980F9D
:1037400090933E0119165CF4022E000C330B40914D
:10375000440150E0415051092417350734F0819558
:1037600080933D01813009F41C82DF91CF911F913C
:1037700008957F928F929F92AF92BF92CF92DF92E5
:10378000EF92FF920F931F93CF93DF93EC018A8107
:1037900080FF03C0BB24BA9402C0BB24B3948C81C5
:1037A00081110DC081E0B81206C0809144018150A2
:1037B0008093A20202C01092A20281E08C83A12C0D
:1037C0004CE0842E90904401A91408F041C08091EF
:1037D0004201CA2CD12C8601080F111DC801880F87
:1037E000991F080F191F0B551D4FF80111821082E8
:1037F000128234E0E32EF12C712C8091A202870D0D
:103800008D302CF0682D0E94CD2F892F02C087FDAE
:10381000890D082E000C990BC816D90691F48091D9
:10382000CC028E9DA0018F9D500D1124559547957A
:103830005595479598016091CB028091CA020E94EC
:10384000D42A7B0CF1E0EF1AF108B9F6A394BACFB1
:103850000E940F2A8091A20291E0B9120EC081113C
:1038600007C08091440181508093A2021C820FC046
:1038700081508093A202BC820AC090E001966091C0
:10388000440170E00E94EF2F8093A2028C83DF91AD
:10389000CF911F910F91FF90EF90DF90CF90BF904D
:1038A000AF909F908F907F900895FF920F931F93FA
:1038B000CF93DF93EC01F12C0FEF10E06091440106
:1038C000F616F0F4809142012F2D30E0280F311DC3
:1038D000C901880F991F280F391F2B553D4F70E0E4
:1038E000C8010E94EF2F962F8C814091CC026091ED
:1038F000CB02F99E800D11240E94D42AF394DECFCE
:103900000E940F2A9A818C8190FF02C08F5F01C0B4
:1039100081508C83DF91CF911F910F91FF9008957B
:103920000F931F93CF93DF9300D01F92CDB7DEB7D5
:103930008C018091A40281110AC09E012F5F3F4F2C
:103940004FEF6FEF0E94D42A8A818093A402F8017E
:103950008481813051F028F0823061F44091A402DA
:103960000AC08091A40240E007C06091A40240E038
:1039700080E003C040E080E060E00E945B2AF80144
:10398000848190E0019663E070E00E94EF2F8483D1
:103990000F900F900F90DF91CF911F910F9108958D
:1039A000CF93DF93EC01E9ECF2E0438162818C81FB
:1039B0000E946A2B8C818F5F8C83DF91CF91089559
:1039C000CF93DF93EC01EC81F0E0EB54FB4F44919B
:1039D000E9ECF2E0628181810E946A2B8C818F5F29
:1039E0008C83DF91CF9108952091E4003091E50020
:1039F00095E64091EC00842F817040FF23C08091B8
:103A0000E80080FD1DC080911D03882399F085305A
:103A100099F08091EB0085FD11C04091E400509138
:103A2000E5002417350729F3915011F09A01E1CFF1
:103A300084E0089582E0089583E0089581E0089588
:103A400080E008954091E80042FFDDCF0895809125
:103A50001F0387FF11C08091E80082FD05C080919F
:103A60001D038111F8CF11C08091E8008B770BC046
:103A700080911D03882349F08091E80080FFF8CFF2
:103A80008091E8008E778093E8000895982F973012
:103A900068F59093E900981739F07091EC00209147
:103AA000ED005091F00003C0242F762F50E021FD4F
:103AB00002C09F5FECCF3091EB003E7F3093EB0074
:103AC0003091ED003D7F3093ED003091EB0031609F
:103AD0003093EB007093EC002093ED005093F000D6
:103AE0002091EE0027FDE5CF80E008958F70809350
:103AF000E90081E0089520912503309126032617DF
:103B0000370748F06115710539F42091E8002E77E8
:103B10002093E80001C0B901FC0120E061157105A6
:103B200079F180911D038823F1F18530F1F18091C5
:103B3000E80083FD3CC08091E80082FD2EC08091AA
:103B4000E80080FFEBCF2091F3008091F20090E03D
:103B5000922B6115710551F08830910538F421914F
:103B60002093F100615071090196F3CF21E008978D
:103B700009F020E08091E8008E778093E800CECFB6
:103B80002111CFCF0AC080911D03882361F08530B9
:103B900061F08091E80083FD0AC08091E80082FF17
:103BA000F2CF80E0089582E0089583E0089581E0F7
:103BB000089578941F920F920FB60F9211248F934D
:103BC0009F93AF93BF938091DE029091DF02A0910B
:103BD000E002B091E1020196A11DB11D8093DE02C9
:103BE0009093DF02A093E002B093E102BF91AF9106
:103BF0009F918F910F900FBE0F901F9018959C0171
:103C00004FB7F8948091DE029091DF02A091E0021C
:103C1000B091E1024FBF821B930B08952FB7F89428
:103C20006091DE027091DF028091E0029091E102EA
:103C30002FBF08952FB7F8948091DE029091DF0294
:103C4000A091E002B091E1022FBF08951F920F9260
:103C50000FB60F9211248F939F93AF93BF938091D0
:103C6000DD02811113C08091DE029091DF02A091EC
:103C7000E002B091E1024196A11DB11D8093DE02E8
:103C80009093DF02A093E002B093E102BF91AF9165
:103C90009F918F910F900FBE0F901F9018950F93CB
:103CA0001F930E947014882321F01F910F910C9490
:103CB0000E1E0E940E1E0091D9021091DA02209170
:103CC000DB023091DC02600F711F821F931F1F9176
:103CD0000F9108950E94701481110C941A1E0E9475
:103CE0004F1ECB0108959C012A5F3F4FFC0142818A
:103CF000461301C01282019682179307B9F70895FF
:103D00009C01FC0132969FEF80E04191461789F0BB
:103D10009F3F19F4411101C0982F8F5F8630A9F79A
:103D20009F3F39F0F901E90FF11D97FDFA95628384
:103D3000089508952091D7023091D80228173907A5
:103D400071F09093D8028093D702E091D502F09160
:103D5000D602309721F00084F185E02D0994089572
:103D60002091D3023091D4022817390771F0909333
:103D7000D4028093D302E091D502F091D60230971D
:103D800021F00680F781E02D099408950E947014B7
:103D9000882351F0E091D502F091D602309721F0BE
:103DA0000190F081E02D099480E00895EF92FF9258
:103DB0000F93CF93DF93C42FD22FFC0182818823EE
:103DC000D1F04093D2020E941A1E9093D1028093A8
:103DD000D00280E28C0F883008F06DC0C77081E09F
:103DE00001C0880FCA95EAF7DF91CF910F91FF903C
:103DF000EF900C94EB238091D20248134BC080913A
:103E0000D0029091D1020E94FF1D883C910508F0DC
:103E100041C0CD17C9F080E28C0F883040F4C770E4
:103E200081E001C0880FCA95EAF70E94E02380E292
:103E30008D0F883048F481E09D2F977001C0880F66
:103E40009A95EAF70E94EB23093319F0E12CF12C43
:103E500003C080E5E82EF12C802F0E945124E1144C
:103E6000F10451F08FE99FE00197F1F700C00000E5
:103E700091E0E91AF108F3CF802F0E94F52380E248
:103E80008D0F8830C0F4D77081E001C0880FDA95BB
:103E9000EAF70AC080E28C0F883068F4C77081E0CE
:103EA00001C0880FCA95EAF7DF91CF910F91FF907B
:103EB000EF900C94E023DF91CF910F91FF90EF9062
:103EC0000895CF92DF92EF92FF92863048F48111ED
:103ED00008C0909180009F77909380002D9806C035
:103EE00085E090918000906890938000282F30E0CA
:103EF000AFEFBFEF0E94333025E030E040E050E00C
:103F00000E940330B42FA32F922F8827492F5A2FB6
:103F10006B2F7727CA014C3724E1520728F469E058
:103F200070E00E94DB2F29C0DB01CA018A50974D47
:103F3000AF4FBF4F6627782F892F9A2F25EF38E292
:103F400041E050E00E94033069017A01CA01B901E1
:103F50000E94B12F9B01AC01C701B6010E94B12F95
:103F6000BB27A92F982F872F009721E0A207B10523
:103F700011F0BC0102C06FEF7FEF70938900609376
:103F80008800FF90EF90DF90CF900895682F86E033
:103F900090E00C947D2F863008F085E09091CF0260
:103FA0009770282F220F220F220F922B9093CF026F
:103FB000987F21E009F420E09091CF0220FB90F956
:103FC0009093CF020E94611F8091CF020C94C61F74
:103FD0008091CF0280FD1FC081608093CF0281302D
:103FE00019F489E08093CF028091CF020E94C61F0E
:103FF0008091CE0280FF08C085EB95E09F938F9360
:104000000E942F060F900F908091CF028695869583
:1040100086950C94611F089580E090E00E94772FB0
:10402000893E9E4F51F00E945B188091CF028470B0
:1040300089628093CF020E94C61F86E090E00E94B2
:10404000692F8093CF02282F26952695269530E05C
:104050002630310524F0877088628093CF028091EA
:10406000CF0280FF04C086958695869501C080E0CA
:104070000C94611F9091C90290FF04C09695981707
:1040800040F003C0811105C090E0961710F40C9425
:104090003F2D61E00C94BB2C882311F0FA0101C084
:1040A000FB0109941092A0028091A1028460809388
:1040B000A1028091CE0280FF08C08CE994E09F931A
:1040C0008F930E942F060F900F9008950F931F93C8
:1040D000CF93DF938091580282958F7009F05DC075
:1040E00080915502882309F458C080918A0210916A
:1040F00059026091530270915402C0915602D091BE
:10410000570291E06F3F09F090E0292F06E08117F8
:1041100009F443C0209721F07F3F21F030E003C035
:1041200031E001C0322F90E030FD34C0089FF00133
:10413000099FF00D1124DF01A65ABD4F11963C9145
:104140001197371327C03C91361324C012963C9127
:10415000129731111FC013964D915C9114974C1B0F
:104160005D0B483C5105B0F4809158028F7080611E
:1041700080935802E15AFD4F80818F708061808367
:1041800083E592E00E94E006DF91CF911F910F91AD
:104190000C94901901968770BACFDF91CF911F913F
:1041A0000F91089580E090E00E94B01E80E090E0C2
:1041B0000E949A1E10928D0210928C020C94DD18AF
:1041C0008F929F92AF92BF92DF92EF92FF920F93E6
:1041D0001F93CF93DF938090200290902102A090B4
:1041E0002202B0902302409190025091910260917E
:1041F000920270919302842A952AA62AB72ACFE1C7
:10420000D0E026E0929F700111249CE3D92E082F64
:1042100010E0D501C4010C2E04C0B695A795979562
:1042200087950A94D2F780FD04C0219790F780E02B
:1042300014C0DC9EF001DD9EF00D1124EE0DFF1D7B
:10424000E00FF11FEE0FFF1FE953FA4F8591949194
:104250000E94C116019749F38C2FDF91CF911F91D6
:104260000F91FF90EF90DF90BF90AF909F908F9055
:104270000895CF93DF93EC010E94E0202CE3829F0E
:10428000C0011124FC0126E0D29FE00DF11D112494
:10429000EC0FF11DEE0FFF1FE953FA4F859194913A
:1042A0000E94C116DF91CF910895FC018081918118
:1042B0000E943921292F2F70E92FE295EF704E2FA0
:1042C00050E0FA013297EE30F105B8F4EE59FF4FA5
:1042D0000C942530803F99F018F4883E70F40FC09C
:1042E000843F59F40CC0883E50F0813F31F407C040
:1042F000822F869586958695089580E0089581E0C1
:1043000008959F92AF92BF92CF92DF92EF92FF9269
:104310000F931F93CF93DF93CDB7DEB761970FB69F
:10432000F894DEBF0FBECDBF8C0185E0F801DE0141
:104330001D9601900D928A95E1F7F801E280909127
:104340005302609154024091560250915702411518
:10435000510531F06F3F31F481E09F3F19F403C004
:1043600081E001C080E0F82FF1709F2E80FD1AC11E
:10437000F80130812181C380D48083E5A82E82E0BA
:10438000B82EF0905502F601E41BF50BFF2009F45E
:10439000C6C080915802E83CF10508F091C0482F52
:1043A000407F09F050C0621311C093130FC0FE2C60
:1043B000E1100CC08F70806180935802C5010E948B
:1043C000E00680915802F801858329C1CD2831F09B
:1043D0002F3F31F481E03F3F19F403C081E001C079
:1043E00080E080FD03C081E08E2502C080E090E087
:1043F000F82FF170FF2E80FF1CC080918A0240913F
:10440000590256E0841709F4E8C090E0589FF00183
:10441000599FF00D1124E65AFD4F6181261306C005
:104420006081631303C06281E61203C00196877046
:10443000E9CFFE2CEE2009F4F2C080915802816091
:104440008093580249C0621306C0931304C0E11060
:1044500002C0F80186C0C8010E945521882351F18D
:10446000EE2041F120915802822F82958F7090E0CA
:10447000029774F0809153029091540298878F8331
:104480001986DB86CA862C87CE0107960E94E00635
:1044900086E0F801A3E5B2E001900D928A95E1F77C
:1044A0000E9466200AC06217C9F0C8010E94552107
:1044B00081111EC0C8010E94E006FF24F394AFC022
:1044C000482F407F81F783E592E00E94E00686E076
:1044D000F50111928A95E9F7F12CA1C09313E5CF6C
:1044E000E110E3CFF8018583C8010E94E00654C0C3
:1044F000EE2001F320915802822F82958F7090E078
:10450000029734F280915302909154029A838983E6
:104510001B82DD82CC822E83CE010196B7CFE83C90
:10452000F105D0F5FE2CEE2029F2621327C093137B
:1045300025C02091580220FD18C0822F82958F70CF
:10454000482F50E04115510581F0F80125834F3087
:10455000510541F08F5F982F9295907F822F8F7039
:10456000892B8583C8010E94E00686E0F801A3E557
:10457000B2E001900D928A95E1F751C0C8010E9406
:104580005521811185CF8091580281608093580216
:10459000C8010E94E00643C086E0F50111928A95A9
:1045A000E9F73DC0EE2009F485CFC8010E945521EE
:1045B000F82E882309F47ECF86E0F801A3E5B2E067
:1045C00001900D928A95E1F78091530290915402E7
:1045D0000E9439210E94662022C03D872E878D854A
:1045E0009E850E943921292F22952F70223028F490
:1045F0009F7039F0811105C00BC0243028F49F70E2
:1046000049F4805E883020F0C8010E94E0069F2CAB
:10461000F92C05C0F8019581907F99F7F9CF8F2D7E
:1046200061960FB6F894DEBF0FBECDBFDF91CF917C
:104630001F910F91FF90EF90DF90CF90BF90AF90C0
:104640009F900895292F220F920F990F890F682F9D
:10465000669566956695982F977085E0689FB0017E
:10466000112440E050E080E0FB01E40FF51FEA5127
:10467000FD4F208130E0092E02C0369527950A941F
:10468000E2F721703327042E01C0220F0A94EAF7C3
:10469000822B4F5F5F4F4530510531F70895292F29
:1046A000220F920F990F890FE82FE695E695E69570
:1046B000877051E001C0550F8A95EAF785E0E89FC1
:1046C000F0011124EA51FD4F20E030E070E040811C
:1046D000CB01022E02C0969587950A94E2F781706D
:1046E000819584278523842781932F5F3F4F253031
:1046F000310569F708956093200270932102809339
:104700002202909323020C94D2200F931F9341E036
:1047100050E060E070E004C0440F551F661F771F33
:104720008A95D2F7409550956095709580912002BA
:1047300090912102A0912202B09123028A019B0153
:10474000082319232A233B23C901B8011F910F9184
:104750000C947B230F931F9341E050E060E070E0E6
:1047600004C0440F551F661F771F8A95D2F78091AA
:10477000200290912102A0912202B09123028A018D
:104780009B01082B192B2A2B3B2BC901B8011F9128
:104790000F910C947B23609390027093910280930D
:1047A0009202909393020C94D22010928E0286E093
:1047B000EDE4F2E0DF011D928A95E9F70C94D22036
:1047C000882341F0809590918E02892380938E02F8
:1047D0000C94DD180895882339F090918E02892B6E
:1047E00080938E020C94DD180895882309F458C034
:1047F000682F823869F40E94C61E81FF51C069E3A8
:104800008BE492E00E94801E0E94DD1869E30EC0D6
:10481000833891F40E94C61E80FF42C063E58BE49A
:1048200092E00E94801E0E94DD1863E58BE492E016
:104830000E94731E0C94DD18843869F40E94C61E11
:1048400082FF2EC067E48BE492E00E94801E0E94EB
:10485000DD1867E4EBCF8CEF860F813A38F380E206
:10486000860F883070F4677081E090E001C0880F97
:104870006A95EAF7809590918E02892380938E0243
:10488000D9CF8BE5860F833020F480E090E00C9444
:10489000B01E685A673120F480E090E00C949A1EB4
:1048A0000895CF93882309F496C0C82F8238B1F4B5
:1048B0000E94C61E81FD8FC069E38BE492E00E94D6
:1048C000801E0E94DD182FEF81EE94E02150804081
:1048D0009040E1F700C0000069E317C08338E1F4BD
:1048E0000E94C61E80FD77C063E58BE492E00E94C3
:1048F000801E0E94DD182FEF81EE94E02150804051
:104900009040E1F700C0000063E58BE492E00E9474
:10491000731ECF910C94DD188438B1F40E94C61E2A
:1049200082FD59C067E48BE492E00E94801E0E94E1
:10493000DD182FEF81EE94E0215080409040E1F7A8
:1049400000C0000067E4E1CF8CEF8C0F813A80F467
:10495000EDE4F2E083E592E02191C217A1F18E1718
:104960009F07D1F76C2F8BE492E00E94801ED1CF7D
:1049700080E28C0F883068F4C77081E090E001C05D
:10498000880FCA95EAF790918E02892B80938E0248
:10499000C0CFEBE5EC0FE33040F4F0E0E257FE4F20
:1049A000808190E0CF910C94B01EC85AC73198F422
:1049B000EC2FF0E0EE0FFF1FEF56FE4F808191814C
:1049C000CF910C949A1E6C2F8BE492E00E94731E80
:1049D0000E94DD18C7CFCF910895FC01AC014B5F59
:1049E0005F4F8FEF91E32191822728E030E087FF2E
:1049F00003C0880F892701C0880F21503109B9F7FA
:104A0000E417F50781F70895EF92FF920F931F9334
:104A1000CF93DF937C018B010E94F41C811119C09C
:104A2000E70101151105A1F08091E80085FD0AC09C
:104A30008091E8008E778093E8000E94F41C882320
:104A400081F307C089918093F10001501109E9CFEA
:104A500080E0DF91CF911F910F91FF90EF9008952B
:104A60001F93CF93DF93CDB7DEB7AA970FB6F89415
:104A7000DEBF0FBECDBFEFE1F3E087E293E0209110
:104A8000F10021938E179F07D1F780912003833087
:104A900009F460C030F4813071F0823009F49AC0BA
:104AA000B1C08A3009F486C08B3009F46BC08930FC
:104AB00009F0A8C020C080911F03813A09F0A2C06C
:104AC0008091E800877F8093E80080912303909194
:104AD0002403892B21F468E083E193E003C060E0C4
:104AE00080E090E070E00E947B1D8091E8008B7771
:104AF0008093E80087C080911F03813209F082C053
:104B00008091230390912403029708F07BC0809149
:104B1000E800877F8093E8008091E80082FD05C06F
:104B200080911D038111F8CF6DC02091F300809119
:104B3000F20090E0922B029729F48091F1008B7F94
:104B4000813021F48091F100809312038091E8007C
:104B50008B7754C080911F03813A09F053C0809134
:104B6000230390912403892B09F04CC08091E80025
:104B7000877F8093E8008091E80080FFFCCF8091E0
:104B8000450137C080911F038132E1F580912303F5
:104B900090912403892BB1F58091E800877F809361
:104BA000E8000E94271D80912103809345010E9407
:104BB000D52328C080911F03813221F58091E80020
:104BC000877F8093E8000E94271D809122038093B5
:104BD000110318C080911F03813AA1F48091E8006D
:104BE000877F8093E8008091E80080FFFCCF809170
:104BF00011038093F1008091E8008E778093E800A4
:104C00000E94271D8091E80083FFD7C180911F0378
:104C100090912003492F50E04A30510508F0CDC152
:104C2000FA01E059FF4F0C942530803821F082388A
:104C300009F0C3C108C080911B0390911C03992304
:104C400089F082600FC0809123038F70873008F055
:104C5000B4C18093E9008091EB0085FB882780F93F
:104C60001092E9009091E800977F9093E80080937C
:104C7000F1001092F1006FC1282F2D7F09F09DC126
:104C8000882319F0823061F098C18091210381302E
:104C900009F093C1933009F080E080931C032EC08B
:104CA0008091210381112AC0809123038F702FEFFF
:104CB000280F263008F081C18093E9002091EB0095
:104CC00020FF1CC0933021F48091EB00806214C05F
:104CD0009091EB0090619093EB0021E030E0A9010E
:104CE00002C0440F551F8A95E2F74093EA001092E4
:104CF000EA008091EB0088608093EB001092E9005D
:104D00008091E800877F8093E8000E94271D55C1AD
:104D1000811153C1109121031F778091E3008078A6
:104D2000812B8093E3008091E800877F8093E800E7
:104D30000E94271D8091E80080FFFCCF8091E30056
:104D400080688093E300111102C082E001C083E01B
:104D500080931D0332C18058823008F02EC120910B
:104D60002103309122032C3D53E0350779F583E090
:104D70008A838AE289834FB7F894DE01139620E094
:104D80003EE051E2E32FF0E050935700E49120FF22
:104D900003C0E295EF703F5FEF708E2F90E0EA3036
:104DA00010F0C79601C0C0968D939D932F5F24315C
:104DB00049F74FBF8091E800877F8093E8006AE25F
:104DC00070E0CE0101960E947B1DB4C08091230348
:104DD00090912403432F552743305105A9F068F4DF
:104DE0004130510509F4F8C04230510509F0E5C0E1
:104DF0008BE590E0E7EDF7E04BC04132510529F13A
:104E00004232510589F1D9C0C901992781309105F4
:104E1000A1F058F0029709F0D0C0E4E4F8E0E49182
:104E20008E2F90E0E4E4F8E030C0ECE7F8E0E491A5
:104E30008E2F90E0ECE7F8E028C0ECE6F8E0E49193
:104E40008E2F90E0ECE6F8E020C08330910508F06A
:104E5000B4C0880F991FFC01E853FE4F0190F08108
:104E6000E02D89E090E014C08330910508F0A5C0E2
:104E7000FC01EE0FFF1FEE53FE4F0190F081E02D7D
:104E8000DC01A154BE4F8C9190E0009709F495C0CD
:104E90002091E800277F2093E8002091250330919E
:104EA00026032817390708F4C90140E0009789F163
:104EB00020911D03222309F43DC02530D9F1209112
:104EC000E80023FD37C02091E80022FD2FC020918B
:104ED000E80020FFEBCF4091F3002091F20030E09A
:104EE000342B009759F02830310540F44491409319
:104EF000F100319601972F5F3F4FF3CF41E028300B
:104F0000310509F040E02091E8002E772093E80079
:104F1000CDCF4111CDCF0AC080911D03882351F020
:104F2000853041F08091E80083FD04C08091E80065
:104F300082FFF2CF8091E8008B778093E8003DC03C
:104F40008038D9F58091E800877F8093E8008091D0
:104F50001E038093F1008091E8008E77D4CE8111FA
:104F60002CC08091210390912203992702972CF560
:104F70008091E800877F8093E800109121031093CF
:104F80001E030E94271D111106C08091E30087FDBA
:104F900002C081E001C084E080931D0342E061EC27
:104FA00081E00E94461D42E261EC82E00E94461DC3
:104FB00042E261EC83E00E94461D8091E80083FF9D
:104FC00010C08091E800877F8093E8008091EB001B
:104FD00080628093EB0005C082E190E0E2E3F8E0BC
:104FE00057CFAA960FB6F894DEBF0FBECDBFDF91A4
:104FF000CF911F9108951F920F920FB60F92112417
:105000002F933F934F935F936F937F938F939F93D0
:10501000AF93BF93CF93DF93EF93FF93C091E900DA
:10502000CF708091EC00D82FD17080FDD0E8109225
:10503000E9008091F000877F8093F00078940E94CF
:1050400030251092E9008091F00088608093F00094
:10505000CD2BCF70C093E900FF91EF91DF91CF91FD
:10506000BF91AF919F918F917F916F915F914F9180
:105070003F912F910F900FBE0F901F901895E8ED64
:10508000F0E080818E7F80831092E2001092DA003F
:105090001092E100A0EEB0E08C9181608C93808151
:1050A0008F77808319BCA7EDB0E08C918E7F8C93B5
:1050B00080818F7E8083109210030895CF92DF92BB
:1050C000EF92FF920F931F93CF93DF93C8EDD0E041
:1050D00088818F7E8883E7EDF0E080818160808326
:1050E00084E082BF81E08093100388818E7F888373
:1050F00002EE10E0F80110821092DA0081EEC82E64
:10510000D12CF601108288818F778883888180680E
:10511000888388818F7D888319BC10921D0310922B
:105120001E0310921C0310921B0390EEE92EF12C2B
:10513000F70180818B7F808388818160888342E052
:1051400060E080E00E94461DF60180818E7F8083B2
:10515000F801808181608083808188608083F7018D
:1051600080818E7F8083888180618883DF91CF9169
:105170001F910F91FF90EF90DF90CF9008951F92B5
:105180000F920FB60F9211242F933F934F935F937B
:105190006F937F938F939F93AF93BF93EF93FF93FF
:1051A0008091E10082FF49C08091E20082FF45C00A
:1051B0008091E1008B7F8093E10020910F032F5FAE
:1051C000822F62E30E94C12F992319F020930F03CD
:1051D00034C010920F0380910E03882371F18091E7
:1051E0001D03843041F58091E9008F702091EC001F
:1051F000922F917020FD90E8892B93E09093E90025
:105200009091EB0090FF14C09091EE0097FF10C0BA
:105210009091E80095FF03C01092F100F9CF9091B2
:10522000E80090FF05C09091E8009E779093E80019
:105230008F708093E90010920E038091DA0080FF56
:1052400032C08091D80080FF2EC08091DA008E7F1E
:105250008093DA008091D90080FF1CC080E189BD75
:1052600082E189BD09B400FEFDCF81E080931D037A
:1052700083EC97E00E94960580911003811113C082
:105280000E943F280E945E288091E2008460809303
:10529000E20009C019BC10921D0387EC97E00E9440
:1052A0009605109210038091E10080FF1BC0809151
:1052B000E20080FF17C08091E2008E7F8093E200C1
:1052C0008091E20080618093E2008091D80080624A
:1052D0008093D80019BC85E080931D038BEC97E088
:1052E0000E9496058091E10084FF32C08091E20027
:1052F00084FF2EC080E189BD82E189BD09B400FE32
:10530000FDCF8091D8008F7D8093D8008091E100FF
:105310008F7E8093E1008091E2008F7E8093E20097
:105320008091E20081608093E20080911E038823D7
:1053300011F084E007C08091E30087FD02C081E0A6
:1053400001C083E080931D038FEC97E00E949605D7
:105350008091E10083FF2BC08091E20083FF27C092
:105360008091E100877F8093E10082E080931D03BC
:1053700010921E038091E1008E7F8093E100809166
:10538000E2008E7F8093E2008091E2008061809352
:10539000E20042E060E080E00E94461D8091F00063
:1053A00088608093F00083ED97E00E949605FF915E
:1053B000EF91BF91AF919F918F917F916F915F918D
:1053C0004F913F912F910F900FBE0F901F90189506
:1053D0006091C902669570E04BE050E086E491E090
:1053E0000E945C30892B19F481E08093A0020E9416
:1053F0006A1E90932803809327038091A102846002
:105400008093A1028091CE0280FF08C089E69AE0D5
:105410009F938F930E942F060F900F9008953091C5
:1054200041018091C90280FF16C0E091400163E014
:10543000E69FF0011124EB55FD4F539A8BB1877F06
:105440009BB198602FB7F894AF0163E0369F400D91
:10545000511D112414C0809142019091430189177C
:1054600020F7E82FF0E0AF01440F551FE40FF51FC0
:10547000EB55FD4F1182108212828F5FF0CFE4173F
:10548000F50789F0319168E09BB9000000C037FF53
:105490008BB9330F000000C000C000C08BB900C042
:1054A0006A9591F7ECCF2FBF8FE594E00197F1F764
:1054B00000C0000008959091C90290FF16C090911D
:1054C000420120914301921770F4E92FF0E0DF01CF
:1054D000AA0FBB1FEA0FFB1FEB55FD4F81836083B3
:1054E00042839F5FF0CF0C940F2A08958091C902E8
:1054F000282F269530E02115310519F4817082603E
:1055000005C02532310524F0817088648093C9027A
:105510000895CF92DF92EF92FF926B017C010E947F
:10552000762AB701A60188E090E0FF90EF90DF9027
:10553000CF900C948F2F8091CD02882319F0815049
:105540008093CD026091C9027091CA028091CB0212
:105550009091CC020C94892A8091CD02833018F46A
:105560008F5F8093CD026091C9027091CA028091D1
:10557000CB029091CC020C94892AE9ECF2E083E012
:10558000808311828FEF828383831482AFE9B2E03C
:1055900012968C911297836012968C936081718120
:1055A000828193810C94892AAF92BF92CF92DF922D
:1055B000EF92FF920F931F93CF93DF93E82EF62E77
:1055C000E901E42FF0E0611106C0E058F74FE491E3
:1055D0004E2F2E2F71C0062F10E0E058F74F449148
:1055E000F42FC42ED12C26E0829FC00111242FEF6E
:1055F00030E0B9010E94DB2F5BEA5603C001579FE0
:10560000900D11248E0D911D8E0D911D582F550F4B
:10561000580FD901A01BB10BAC9DC001AD9D900DE1
:10562000BC9D900D1124E92FF59ED0011124AB2FC4
:10563000BB277901EA1AFB0AEC9CD001ED9CB00D66
:10564000FC9CB00D11245901A51AB108A09E70014F
:10565000A19EF00CB09EF00C1124EF2CFF242E190B
:105660003F092C9D80012D9D100D3C9D100D112496
:10567000212F6230710591F048F461157105E1F058
:1056800061307105B9F4242F4B2F16C064307105B9
:1056900069F040F06630710579F00CC0242F492F75
:1056A000E12F0AC0492FEF2F2B2F06C0292FE42FFF
:1056B000412F02C0292FEB2F49832883EA83DF91F2
:1056C000CF911F910F91FF90EF90DF90CF90BF90FF
:1056D000AF900895CF93DF9300D01F92CDB7DEB780
:1056E0009091C90290FF0AC09E012F5F3F4F0E9418
:1056F000D42A4B8169818A810E945B2A0F900F9086
:105700000F90DF91CF9108954F925F926F927F92A9
:105710008F929F92AF92BF92CF92DF92EF92FF92C1
:105720000F931F93CF93DF9300D01F92CDB7DEB7B7
:10573000F82ED62EE42E622E9091C90290FFC5C09D
:10574000E92FE695AE2FB0E0A253BE4F8C91809327
:105750009F029E7F923061F49E012F5F3F4F8F2DFD
:105760000E94D42A4B8169818A810E945B2A62C08F
:10577000823019F4E090CC025DC0863019F4F090CC
:10578000CA0258C08930D9F3893109F053C0E951B0
:105790008E2F8170782E81E0C72CC826E695F0E028
:1057A000EC59F54FA590B490412CBB249DE3892E74
:1057B0009AE0992E609144014616D0F5042D10E030
:1057C0000A9DC0010B9D900D1A9D900D112470E053
:1057D0000E94DB2F5F2C711002C0560E01C0561ABA
:1057E0008091CE0280FF11C0BF92AF921F92CF92E4
:1057F0001F925F921F924F929F928F920E942F064C
:105800000FB6F894DEBF0FBECDBF80914201080FE6
:10581000111D9801220F331F020F131F98012B55E2
:105820003D4F4E2D6D2D852D0E94D42A4394C2CF1D
:105830000E940F2A8091CA02F81208C08091CB0200
:10584000D81204C08091CC02E81629F08091A10200
:1058500082608093A102F092CA02D092CB02E092C1
:10586000CC026620E9F06091C9027091CA02809171
:10587000CB029091CC020E94892A8091CE0280FFB7
:1058800024C08091CC021F928F938091CB021F92F3
:105890008F938091CA021F928F9388E19AE00CC087
:1058A0008091CE0280FF11C01F92EF921F92DF9273
:1058B0001F92FF9281EF99E09F938F930E942F0692
:1058C0000FB6F894DEBF0FBECDBF0F900F900F90B4
:1058D000DF91CF911F910F91FF90EF90DF90CF90CC
:1058E000BF90AF909F908F907F906F905F904F9000
:1058F0000895E9ECF2E0438121E1421B08F440E025
:1059000021E0628181810C94842BE9ECF2E04381F7
:1059100021E1420F08F44FEF21E0628181810C9474
:10592000842BE9ECF2E0628121E1621B08F460E083
:1059300021E0438181810C94842BE9ECF2E06281C7
:1059400021E1620F08F46FEF21E0438181810C9423
:10595000842BE9ECF2E0818121E04381628188506F
:105960000C94842BE9ECF2E0818121E04381628197
:10597000885F0C94842B9091C90290FF5AC091705B
:10598000811102C0926006C0853210F0986402C096
:10599000880F982B9093C9028091A1028160809317
:1059A000A1026623B1F06091C9027091CA02809190
:1059B000CB029091CC020E94892A8091CE0280FF76
:1059C0001BC08091C90286951F928F938EE999E042
:1059D0000BC08091CE0280FF0FC08091C9028695D6
:1059E0001F928F9380E899E09F938F930E942F06D8
:1059F0000F900F900F900F906091C902669570E024
:105A00004BE050E086E491E00E945C30892B19F075
:105A10000E94522002C00E94E82981E080932A035C
:105A200020E04091CC026091CB028091CA020C949C
:105A3000842B08958091C90281608093C90280916E
:105A4000CE0280FF0DC01F9281E08F938AEB99E018
:105A50009F938F930E942F060F900F900F900F909F
:105A60008091C90261E086950C94BB2C8091C9029B
:105A70008695815009F484E261E00C94BB2C8091FE
:105A8000C90286958F5F853208F081E061E00C9451
:105A9000BB2C8EE1489B02C08150E1F7489BFECFB2
:105AA0000895589880E28A95F1F7589A0895FC0174
:105AB0002AE02A95F1F728E090E080E031E040E12B
:105AC0004A95F1F7880F489B02C08160932700C078
:105AD000000040E14A95F1F7215089F720E12A952D
