:100000000C940B050C94D12B0C9428050C9428050A
:100010000C9428050C9428050C9428050C942805AC
:100020000C9428050C9428050C94D8250C94942540
:100030000C942B270C9428050C9428050C94280567
:100040000C9428050C9428050C9428050C9428057C
:100050000C9428050C9407270C9428050C9428056B
:100060000C9428050C9428050C9428050C9428055C
:100070000C9428050C9428050C9428050C9428054C
:100080000C9428050C9428050C9428050C9428053C
:100090000C9428050C9428050C9428050C9428052C
:1000A0000C9428050C9428050C9428050631FF09AA
:1000B00074A1010975150026FF00952075088102BD
:1000C0000976150026FF00952075089102C00501EC
:1000D0000980A101850319012AB700150126B7007F
:1000E000950175108100C0050C0901A10185041955
:1000F000012AA002150126A002950175108100C0F9
:1001000005010906A101050719E029E715002501E8
:10011000950875018102950175088101050719008F
:1001200029FF150026FF00950675088100050819AE
:10013000012905950575019102950175039101C08D
:100140006261636B6C696768742064656372656182
:1001500073653A2025750A006261636B6C69676894
:100160007420696E6372656173653A2025750A00B3
:100170006261636B6C696768742064697361626C47
:10018000650A006261636B6C6967687420746F67ED
:10019000676C653A2025750A006261636B6C69675C
:1001A000687420737465703A2025750A007267625E
:1001B0006C696768742064697361626C65205B4573
:1001C0004550524F4D5D3A207267626C69676874A2
:1001D0005F636F6E6669672E656E61626C65203D58
:1001E0002025750A007267626C6967687420746FF5
:1001F00067676C65205B454550524F4D5D3A2072F4
:1002000067626C696768745F636F6E6669672E65A5
:100210006E61626C65203D2025750A00444542559B
:10022000473A2064697361626C65642E0A00444534
:100230004255473A20656E61626C65642E0A004F34
:100240006E6573686F743A206163746976653A20ED
:1002500025640A000A002530325820006B65796257
:100260006F6172645F7265706F72743A200029006A
:100270001E001F002000210022002B0014001A0085
:1002800008001500170039220400160007000900B5
:100290000A0064001D001B00060019000500000094
:1002A00000003500E000282821524A0027002600DF
:1002B0002500240023004D00130012000C0018003C
:1002C0001C004C0033000F000E000D000B002A0034
:1002D0003800370036001000110000000000460012
:1002E000E6002C0022523A003B003C003D003E005C
:1002F0003F000100240025002600540055000100A5
:100300002100220023005600570062001E001F003B
:1003100020006300580000000000350001000100CB
:10032000010045004400430042004100400001003C
:100330000000AB00A900AA00AC00010000004F00C3
:1003400052005100500001000000217827782878E1
:1003500022780000000001000100010001000100FE
:10036000000000000000000000000100000052003A
:100370000000000000000100500051004F0000008C
:10038000000000000000000000000000000000006D
:100390000000000001000100010001002E002D00FE
:1003A000000000000000010030002F0000000000ED
:1003B00000000100320034000000000000000100D5
:1003C000000000000000000000000000000001002C
:1003D00001000100010054617267657420636F6E53
:1003E0006E65637465640D0A0054617267657420FC
:1003F000646973636F6E6E65637465642C207468E2
:10040000726F74746C696E6720636F6E6E6563746F
:10041000696F6E20617474656D7074730D0A00727B
:1004200067626C696768742064697361626C6520D7
:100430005B4E4F454550524F4D5D3A207267626C9E
:10044000696768745F636F6E6669672E656E616267
:100450006C65203D2025750A004661696C65642045
:10046000746F20657865637574652025730A007262
:1004700067626C696768745F636F6E6669672E7325
:1004800070656564203D2025640A007267626C69AE
:100490006768745F636F6E6669672E76616C203D76
:1004A0002025640A007267626C696768745F636F15
:1004B0006E6669672E736174203D2025640A0072A0
:1004C00067626C696768745F636F6E6669672E68E0
:1004D0007565203D2025640A007267686C6967684D
:1004E000745F636F6E6669672E6D6F6465203D2073
:1004F00025640A007267626C696768745F636F6E77
:100500006669672E656E61626C65203D2025640A10
:10051000007267626C696768745F636F6E666967B3
:1005200020454550524F4D3A0A007267626C696728
:1005300068745F696E6974207267626C6967687459
:100540005F636F6E6669672E6D6F6465203D203056
:100550002E2057726974652064656661756C74201D
:1005600076616C75657320746F20454550524F4D10
:100570002E0A007267626C696768745F696E6974DD
:10058000206565636F6E666967206973206E6F749E
:1005900020656E61626C65642E0A007267626C6928
:1005A0006768745F696E6974207374617274210A7C
:1005B000007267626C696768745F696E6974206352
:1005C000616C6C65642E0A005B735D000A00253067
:1005D0003862003A200025303258000A722F63201A
:1005E00030313233343536370A007267626C6967EE
:1005F000687420616E696D6174696F6E20746963DF
:100600006B207265706F727420746F20736C6176EA
:10061000650A001E0F0500047F3F1F643214643218
:1006200014783C1E1E140A050A0025303258006C4E
:1006300065645F7461736B3A200000010101010180
:10064000010101010202020202020202020303038B
:10065000030303030304040404040404050505055B
:10066000050606060606070707070708080808091B
:100670000909090A0A0A0B0B0B0C0C0C0D0D0D0EC7
:100680000E0E0F0F0F10101111111212131314145C
:10069000151516161717181819191A1A1B1B1C1DD1
:1006A0001D1E1E1F2020212222232424252626272A
:1006B0002829292A2B2C2D2D2E2F3031323233345C
:1006C00035363738393A3B3C3D3E3F404142434462
:1006D00045464748494A4C4D4E4F50515354555644
:1006E00058595A5B5D5E5F616264656668696B6CF0
:1006F0006D6F7072737577787A7B7D7E808283856B
:1007000087888A8C8E8F91939596989A9C9EA0A2AA
:10071000A3A5A7A9ABADAFB1B3B5B7BABCBEC0C2B4
:10072000C4C6C9CBCDCFD1D4D6D8DBDDDFE2E4E778
:10073000E9EBEEF0F3F5F8FAFDFF7267626C6967BA
:100740006874206D6F6465205B4E4F454550524F75
:100750004D5D3A2025750A007267626C696768749E
:10076000206D6F6465205B454550524F4D5D3A20CA
:1007700025750A007267626C6967687420656E612E
:10078000626C65205B454550524F4D5D3A20726763
:10079000626C696768745F636F6E6669672E656E09
:1007A00061626C65203D2025750A007267626C6984
:1007B0006768742073657420687376205B4E4F45BC
:1007C0004550524F4D5D3A2025752C25752C2575C9
:1007D0000A007267626C69676874207365742068C8
:1007E0007376205B454550524F4D5D3A2025752C60
:1007F00025752C25750A007267626C69676874201C
:100800007261696E626F7720736574206873763ADF
:100810002025642C25642C25642C25750A00FFAA4C
:100820007F55407267626C696768742074696D6592
:100830007220656E61626C65642E0A007267626C7C
:10084000696768742074696D657220646973616298
:100850006C652E0A002223252628292A2C2D2F30CC
:1008600032333536383A3B3D3E4042434547494AAC
:100870004C4E5051535557595A5C5E6062646668DD
:10088000696B6D6F71737577797B7D7F81838587E8
:10089000898A8C8E90929496989A9C9E9FA1A3A5EB
:1008A000A7A8AAACAEAFB1B3B4B6B8B9BBBCBEBF13
:1008B000C1C2C3C5C6C7C9CACBCCCDCED0D1D2D296
:1008C000D3D4D5D6D7D7D8D9D9DADADBDBDBDCDCA1
:1008D000DCDCDCDDDDDDDDDCDCDCDCDCDBDBDBDA59
:1008E000DAD9D9D8D7D7D6D5D4D3D2D2D1D0CECDC4
:1008F000CCCBCAC9C7C6C5C3C2C1BFBEBCBBB9B8D1
:10090000B6B4B3B1AFAEACAAA8A7A5A3A19F9E9C55
:100910009A98969492908E8C8A89878583817F7D20
:100920007B79777573716F6D6B6968666462605E01
:100930005C5A5957555351504E4C4A4947454342CA
:10094000403E3D3B3A3836353332302F2D2C2A2964
:1009500028262523226261636B6C696768742065B1
:100960006E61626C650A005B435D005B445D005B29
:10097000535D005B575D005B525D0009025B000345
:100980000100A0FA0904000001030101000921117E
:10099000010001224000070581030800010904014C
:1009A00000010300000009211101000122320007AB
:1009B000058203200001090402000203000000096F
:1009C00021110100012222000705830320000107F5
:1009D000050303200001120100020000000810CBF3
:1009E000562200020102000118034900720069004A
:1009F000730020005200650076002E0020003200B7
:100A000000000E034B0065006500620069006F0086
:100A100000000403090411241FBECFEFDAE0DEBF9B
:100A2000CDBF23E0A4EFB1E001C01D92A336B20711
:100A3000E1F711E0A0E0B1E0E6E1FEE502C00590DB
:100A40000D92A43FB107D9F70E9452270C94B52EFE
:100A50000C940000FF93EF93E091F401F091F50105
:100A6000309709F00995EF91FF910895FC01859168
:100A7000803011F0EFDFFBCF0895FF27E0E230E296
:100A800047FF0CC0419597FF09C0EDE26095709556
:100A900080959095611D711D811D911D27FF02C0DC
:100AA000219530E350E2AA27660F771F881F991F10
:100AB000AA1FA41710F0A41B63955A95A9F7AA3092
:100AC00008F0A95FA05DAF93F395611571058105ED
:100AD000910541F7ED3211F4EF93F395F21718F405
:100AE0003F93F395FBCF8F91B5DFFA95E1F708952A
:100AF000E991F9918591803021F0853219F0AADFD2
:100B0000F9CF089520E0E89455915532C1F3503360
:100B100011F4689455915A3348F4505390F3220FCE
:100B2000022E220F220F200D250FF4CF0EF4219557
:100B300089919991533619F3533729F1533559F166
:100B4000BC0188279927E8945C3621F48991999112
:100B500068945591543639F446EF7EF077FF0DC016
:100B60008FEF9FEF0AC055374AE039F0583540E122
:100B700021F0523642E009F00895FF93EF937DDFB4
:100B8000EF91FF91B7CFFF93EF93FC0181918030FC
:100B9000B9F360DFFBCFFF93EF9368DFF1CFDF9313
:100BA000CF93CDB7DEB72596A3DFCF91DF91089520
:100BB000FC01AC014B5F5F4F8FEF91E321918227E6
:100BC00028E030E087FF09C0880F892721503109CC
:100BD000C9F7E417F50791F70895880FF7CFE8ED07
:100BE000F0E080818E7F80831092E2001092DA0024
:100BF0001092E100A0EEB0E08C9181608C93808136
:100C00008F77808319BCA7EDB0E08C918E7F8C9399
:100C100080818F7E80831092490308952091E400A3
:100C20003091E50095E6A9012091EC00822F8170BA
:100C300020FF06C08091E80080FF06C080E0089594
:100C40002091E80022FD1AC080915603882389F084
:100C5000853089F08091EB0085FD0FC02091E40084
:100C60003091E50042175307F9F29150E1F684E024
:100C7000089582E0089583E0089581E008958091C9
:100C8000580387FF13C08091E80082FF06C080915F
:100C9000E8008B778093E80004C0809156038111AF
:100CA000F2CF0895809156038823D9F38091E8000C
:100CB00080FFF8CF8091E8008E77ECCF982F90934B
:100CC000E900242F762F50E0891731F07091EC0065
:100CD0002091ED005091F00021FD07C09F5F9730FB
:100CE00071F78093E90081E008953091EB003E7F39
:100CF0003093EB003091ED003D7F3093ED0030916B
:100D0000EB0031603093EB007093EC002093ED002A
:100D10005093F0002091EE0027FDE0CF80E0089591
:100D2000B0E0A0E0E6E9F6E00C94F72CC8EDD0E0E6
:100D300088818F7E8883E7EDF0E080818160808309
:100D400084E082BF81E08093490388818E7F88831D
:100D500002EE10E0F80110821092DA0081EEC82E47
:100D6000D12CF601108288818F77888388818068F2
:100D7000888388818F7D888319BC109256031092D6
:100D80005703109255031092540390EEE92EF12C64
:100D9000F70180818B7F808388818160888342E036
:100DA00060E080E00E945E06F60180818E7F808395
:100DB000F801808181608083808188608083F70171
:100DC00080818E7F8083888180618883CDB7DEB704
:100DD000E8E00C94132DFC0180915E0390915F0379
:100DE00086179707A0F06115710529F49091E80026
:100DF0009E779093E80090E06115710551F4911190
:100E000008C08091E80082FF34C080E00895BC01F2
:100E1000F2CF809156038823C1F18530C1F18091D2
:100E2000E80083FD30C08091E80082FDEACF809128
:100E3000E80080FFE1CF8091F3002091F200382F8D
:100E40006115710519F02830310558F091E028300E
:100E5000310509F090E02091E8002E772093E8001A
:100E6000CBCF81918093F100615071092F5F3F4F8B
:100E7000E7CF80915603882341F0853041F080917F
:100E8000E80083FFBECF81E0089582E0089583E00B
:100E900008950895089580914B0308959C014FB7DC
:100EA000F8948091420390914303A0914403B09140
:100EB00045034FBF821B930B08952FB7F8946091A1
:100EC00042037091430380914403909145032FBFE7
:100ED00008952FB7F8948091420390914303A09115
:100EE0004403B09145032FBF0895A3E0B0E0EBE7C2
:100EF000F7E00C94FD2C20913F033091400328171C
:100F00003907A1F09093400380933F03E0913D03A4
:100F1000F0913E03309751F024E029839B838A832C
:100F20000680F781E02DCE01019609952396E2E037
:100F30000C94192DA3E0B0E0E0EAF7E00C94FD2C4E
:100F400020913B0330913C0328173907A1F090937F
:100F50003C0380933B03E0913D03F0913E033097C7
:100F600051F023E029839B838A830680F781E02D5B
:100F7000CE01019609952396E2E00C94192D8F92EB
:100F80009F92AF92BF92EF92FF920F931F93CF93D6
:100F9000DF938630B8F5811136C0909180009F773D
:100FA000909380002D98A0918600B0918700282F03
:100FB00030E00E94A62E25E030E040E050E00E94A4
:100FC000842E89019A0180918600909187006CE0BF
:100FD00070E00E944E2D60177107D8F0C80169E0DB
:100FE00070E00E944E2D7093890060938800DF911D
:100FF000CF911F910F91FF90EF90BF90AF909F9076
:101000008F90089585E09091800090689093800083
:10101000CACF8091860090918700E0908600F09082
:101020008700E0918600F0918700C6E0D0E0BE0125
:101030000E944E2D060F171F211D311D4801590119
:1010400085E0880C991CAA1CBB1C8A95D1F7C701A6
:10105000BE010E944E2D9F0150E040E0260F371F39
:10106000411D511DC501B4010E94842E49015A0140
:10107000E0918600F0918700CA01B9010E94242DF9
:101080009B01AC01DF010E94712E9B01AC01C501E7
:10109000B4010E94242D2FE096958795779567954A
:1010A0002A95D1F7009186001091870030E020E06A
:1010B000061717072807390708F095CF60918600B3
:1010C0007091870090CFFA01811101C0FB01099551
:1010D000089580913403982F9E7F29F48170826057
:1010E0008093340308958635E8F381708465F8CFE2
:1010F000AF92BF92DF92EF92FF920F931F93CF9325
:10110000DF93082F162FE901E42FF0E0E65CF94F9A
:10111000611110C0E4915E2F4E2F4983E8835A83FA
:10112000DF91CF911F910F91FF90EF90DF90BF90D3
:10113000AF900895E62EF12C4491D42EE42FF0E0E8
:1011400026E0829FC00111242FEF30E0B9010E94F8
:101150004E2D802F90E0880F991F55E5569FD001A6
:10116000579FB00D11248A1B9B0B982F990F890F45
:101170005901AE18BF08AE9ED001AF9EB00DBE9E05
:10118000B00D11245B2F189F80011124012F11270E
:101190005901A01AB10AAE9E8001AF9E100DBE9EED
:1011A000100D11245901A81AB108AE9CC001AF9CC2
:1011B000900DBE9C900D1124892F9927281B390B67
:1011C0002E9FC0012F9F900D3E9F900D1124E92F5F
:1011D00062307105A1F050F46115710509F49DCFDD
:1011E0006130710581F0EB2F512F97CF643071057D
:1011F00069F080F06630710509F48FCFF4CFE42FE9
:101200004B2F592F8ACFE42F412F87CFEB2F542F0D
:10121000492F83CF4B2F5D2DE12F7FCFF894E82FFF
:10122000E295EF70F0E031A1282F2F7081E090E07F
:1012300001C0880F2A95EAF7982F9095932391A3E0
:1012400092A1892B82A3789408959091AD0292FF88
:1012500006C0282F28712830F9F4877F846093FF17
:1012600006C0282F28712831F1F4877E84612091EF
:10127000AE0220FF06C0382F38713830D9F4877F8E
:10128000816021FF06C0282F28712831D1F4877E84
:10129000816194FD877E0895282F24712430F9F60A
:1012A0008B7F8860DCCF282F2471243101F78B7E5F
:1012B0008861DDCF382F3171313019F78E7F88602A
:1012C000E0CF282F2171213121F78E7E8861E1CF77
:1012D00082389105B9F1B0F48133910509F47DC0EC
:1012E00048F48932910509F46DC08A32910509F4F8
:1012F0007BC008958533910509F45FC0893391055A
:1013000009F10895833E9105D9F138F4803E9105A5
:1013100029F1823E910579F10895863E9105D9F132
:10132000873E910509F43EC0843E910541F5209128
:10133000AE0221FF24C08091AD0284FD19C087EE6A
:1013400090E008952091AD02237009F05AC02091D9
:10135000AE0223FF14C089E290E008952091AD020F
:1013600020FD38C03091AE0230FF09C024FF43C0D9
:1013700090E080E008952091AD0222FDF7CF08951E
:101380002091AD0222FD3AC03091AE0230FD39C04D
:1013900024FFF5CFEDCF2091AD0223FFF0CF24FD48
:1013A000E7CFCDCF2091AD0223FD2EC03091AE020C
:1013B00031FFEECF84EE90E008952091AD0225FF3D
:1013C000DECFC9CF2091AD0225FD21C02091AE0214
:1013D00023FFD5CF89E390E0D2CF2091AD0226FF45
:1013E000CECF8AE290E008952091AD0226FFC7CFCC
:1013F00081E390E0089583EE90E0089582EE90E01E
:10140000089580EE90E0089586EE90E0089585E3DB
:1014100090E00895972F7A30B8F46630A8F48330BE
:10142000B0F470E026E0929F600D711D1124FB0165
:101430009CE3899FE00DF11D1124EE0FFF1FE2597F
:10144000FD4F85919491089580E090E0089581E0AA
:10145000FCCF1F93CF93DF930E946809EC01C11565
:1014600080E5D807F0F5C11580E4D80708F09CC0E6
:10147000C03ED10520F5CD3CD10508F082C0C83A68
:10148000D10578F4C53AD10508F073C0C130D10553
:1014900019F1209709F1C430D105F0F4D0E0C0E093
:1014A0001BC0C33CD105D0F7C85AD0E0CC0FDD1F1C
:1014B000C958DE4F0990D881C02DD4640DC0C11524
:1014C00080E2D80708F0D1C0C11581E0D80708F044
:1014D0005AC0C83ED10510F7CE01DF91CF911F91C0
:1014E0000895C03682E5D80718F5C03482E5D807DC
:1014F00008F06BC0C03282E5D80708F05FC0C115A4
:1015000082E5D80708F497C02C2F2695269580E20F
:10151000289F900111248C2F8370C1E0D0E002C07D
:10152000CC0FDD1F8A95E2F7C22BD32BDD68D4CF19
:10153000C03A82E5D80760F4C03882E5D80708F4DD
:1015400059C0CF71D0E0DC2FCC27C46FD06AC4CF94
:10155000C03C82E5D80708F462C0C03E82E5D807E7
:1015600008F09CCFDC2FCC27CC27DF71C06FD06A6E
:10157000B3CFC55AD0E0CC58DE4FC881D0E0D0649C
:10158000ABCFD065A9CF8D2F0E942509182FCE0192
:1015900099270E946809C12FD0E0DC2FCC27CC27E7
:1015A000DF71C82BD92B98CFCE0199270E946809EB
:1015B000CC27DF70C82BD92BD06A8ECFCF71D0E06B
:1015C000DC2FCC27C16FD06A87CF2C2F269526958C
:1015D000277080E2289F900111248C2F8370C1E036
:1015E000D0E002C0CC0FDD1F8A95E2F7C22BD32BCF
:1015F000DC6872CF2C2F26952695277080E2289FD5
:10160000900111248C2F8370C1E0D0E002C0CC0F78
:10161000DD1F8A95E2F7C22BD32BDA685DCF8C2FC2
:101620008F710E942509C82FD0E0DC2FCC27CC2752
:10163000DF71D06251CF8C2F8F710E94250955E048
:10164000D695C7955A95E1F7CF70D0E0DC2FCC271F
:10165000282F30E084FF05C044E0220F331F4A9555
:10166000E1F7C22BD32BD06937CF8D2F8F710E941A
:101670002509182FCE0199270E946809C12FD0E0B3
:10168000DC2FCC27CC27DF71C82BD92BD2CF809170
:101690006202811110926202089580959091610218
:1016A0009823909361020895E8EFF1E091918913F6
:1016B00003C0DF0111971C9291E0EE3FF907B1F7EB
:1016C0000895A8EFB1E0EFEF90E02D91821751F06F
:1016D000EF3F19F4211101C0E92F9F5F9630A9F760
:1016E000EF3F09F408950E2E000CFF0BEA50FE4F59
:1016F00082830895209156029091250256E0291385
:1017000002C080E0089530E0529FF001539FF00D39
:101710001124EA5DFD4F7181761306C07081781344
:1017200003C07281741304C02F5F3F4F2770E7CF4F
:1017300081E008958091560290912502981301C08E
:1017400008958F5F8770FACFB0E0A0E0EAEAFBE08F
:101750000C94F62C7C010091AB021091AC028091AC
:10176000630290916402082B192BCFE0D0E0CC24C7
:10177000C394D12CBC2EC6010C2E02C0880F991F19
:101780000A94E2F780239123892B49F4219790F75B
:10179000B12C8B2DCDB7DEB7E9E00C94122DB7013B
:1017A0008C2F0E940A0A0E94290A019779F3F1CF2F
:1017B000CF93DF93EC010E94A40BBE010E940A0AA2
:1017C0000E94290ADF91CF9108959A3078F58630EA
:1017D00068F5E82FF0E086E0989FE00DF11D1124F8
:1017E0009E2F977083E0F695E7958A95E1F7EE0FC7
:1017F000FF1FEE0FFF1FE150FE4F50E040E080E082
:10180000219130E0092E02C0369527950A94E2F71F
:1018100021703327042E01C0220F0A94EAF7822B8D
:101820004F5F5F4F4430510559F7089580E00895A8
:101830009A3098F5863088F5E82FF0E086E0989F9A
:10184000E00DF11D11248E2F877041E001C0440F7F
:101850008A95EAF783E0F695E7958A95E1F7EE0F2A
:10186000FF1FEE0FFF1FE150FE4F30E020E070E061
:101870005191DF011197CB01022E02C096958795F9
:101880000A94E2F7817081958527842385278C93BC
:101890002F5F3F4F2430310559F708959093AC02E4
:1018A0008093AB02089521E030E002C0220F331F85
:1018B0008A95E2F7209530958091AB029091AC0229
:1018C000822393230E944E0C089590915702809595
:1018D000892380935702282F277091F4282F082EF0
:1018E000000C330B9217130659F09091AE0292FF41
:1018F00007C08595859585950E94530C10925702D7
:10190000089521E030E002C0220F331F8A95E2F7EC
:101910008091AB029091AC02822B932B0E944E0CD3
:10192000089590936402809363020895FC0183817B
:101930009481892B29F08081918189238F3F51F4F3
:1019400080E00895843FE1F717C0883EA8F0813F0A
:10195000B9F712C0808191810E94D80B92959F7037
:10196000963099F358F4925F9F70923048F7803F19
:1019700019F040F7883E20F781E008959A5FF4CF90
:10198000829590E09C01220F331F220F331F2C7C85
:1019900095958795959587958373282B30E0C90198
:1019A000880F991F8A7A359527952575822B08957A
:1019B0009FB7F894109247039FBF909156039430BD
:1019C00009F048C02091E9002F703091EC00932F6E
:1019D000917030FD90E8922B23E02093E900209154
:1019E000EB0020FF34C02091EE0027FF30C0209193
:1019F0004603222321F02091E80025FF28C0109201
:101A0000460326E03091E80035FF14C08093F100D2
:101A10008091E80085FD27C08091E80080FFFCCF21
:101A20008091E8008E778093E8009F709093E900A2
:101A300080E0089530915603343049F43091EB0042
:101A400035FD05C0215041F481E0809346039F702D
:101A50009093E9008FEF0895EFE9FFE03197F1F7F8
:101A600000C00000CFCF8FB7F89421E02093470348
:101A70008FBFDBCF0F931F93CF93DF938B01EA01CF
:101A800090915603943061F58093E9008FEF909127
:101A9000E800815095FD06C095ED9A95F1F700009C
:101AA0008111F5CF8091E80085FF1AC00E940E06D3
:101AB000811111C08091E80085FD06C08091E80089
:101AC0008E778093E800F2CFF80181918F018093A7
:101AD000F100219779F78091E8008E778093E800F4
:101AE000DF91CF911F910F91089543E050E0BC0129
:101AF00082E00E943A0D0895CF93DF93EC0148E015
:101B000050E0BC0181E00E943A0D88E0FE01ACE4A7
:101B1000B3E001900D928A95E1F7DF91CF9108959E
:101B2000609144018091340380FF20C08091430183
:101B300043E0849FC00111248C529D4F539A2BB1D6
:101B4000277F3BB138605FB7F894FC01649FE00DDC
:101B5000F11D1124BF0168177907D1F45FBF8FE52C
:101B600094E00197F1F700C00000089580914501CD
:101B70009091460123E0829FF0011124EC52FD4F29
:101B80008917A0F61182108212828F5F3396F8CFE8
:101B9000FC014191CF01E8E03BB9000000C047FFE4
:101BA0002BB9440F000000C000C000C02BB900C01A
:101BB000EA9591F7D0CF0F931F93CF93DF93EC016A
:101BC00010E000E0909147019017110609F06CF4C5
:101BD0000E94900D8C8190E00196817099278C83F2
:101BE000DF91CF911F910F91089520914501A80198
:101BF000420F511D9A01220F331F240F351F2C5203
:101C00003D4F4C8160913603809135039695901736
:101C1000110651F04CF0442349F0409137030E94E3
:101C200078080F5F1F4FCECF4423B9F340E0F7CFC2
:101C3000B0E0A0E0EEE1FEE00C94F32CEC014C816E
:101C4000042F10E09801D8010E94A62E9B01AC0140
:101C50000E94712E4B015C01E0E2F0E0E01BF10B11
:101C6000A5E5B0E0AC019B010E94712E6B017C01E7
:101C70009F01DF010E947C2D9B01AC010E947C2E04
:101C80009B01AC01280D391D4A1D5B1DC701B60122
:101C90000E94842EF22E822F90E039E23F1520F12F
:101CA00043E0249F9001112435952795122F10951C
:101CB00000E085E5E82EEF1880914701081718F13C
:101CC0000E94900D9C8181E0992319F0903219F4C3
:101CD0008FEF8093420180914201890F8C83CDB7B1
:101CE000DEB7ECE00C940F2D25E530E0B901681B60
:101CF000790B9B01220F331F260F371F37FFD4CFDD
:101D00002F5F3F4FD1CF8E2D01FD8F2D20914501AB
:101D1000622F600F7727771F9B01220F331F260F3B
:101D2000371F2C523D4F412F609136030E94780897
:101D30000F5FC2CFEF92FF920F931F93CF93DF936A
:101D4000EC018C81811109C081E08C831092D20258
:101D500092E09093410180934001809145019091E0
:101D6000460123E0829FF0011124EC52FD4F8917B8
:101D700058F110E003E060914701161758F10E94F6
:101D8000900D809140012091D202280F2093D20221
:101D900090914101980F90934101191654F4022E2D
:101DA000000C330B409147014150550B2417350768
:101DB00034F0819580934001813009F41C82CDB7C5
:101DC000DEB7E6E00C94152D1182108212828F5F2F
:101DD0003396CDCFE12EF12C70E0C7010E94622D29
:101DE00020914501820F482F50E02091D202022E0F
:101DF000000C330BE216F306BCF020914101022ED9
:101E0000000C330B2E153F057CF0809F90011124B0
:101E10002C523D4F4091370360913603809135033A
:101E20000E9478081F5FA7CFFA01EE0FFF1FE40F93
:101E3000F51FEC52FD4F118210821282F3CFB0E0F9
:101E4000A0E0E5E2FFE00C94F32CEC018A81BB24D6
:101E5000BA9480FD02C0BB24B394A09047018C814A
:101E6000811109C081E0B81220C08FEF8A0D8093E4
:101E7000D10281E08C83F12CE12C4CE0942EEA1409
:101E8000B8F00E94900D8091D10291E0B91257C034
:101E9000811150C08091470181508093D1021C82F2
:101EA000CDB7DEB7ECE00C940F2D1092D102E1CF4C
:101EB000009145010E0D1F2D111DC801880F991F9E
:101EC000080F191F0C521D4FF80111821082128247
:101ED00034E0C32ED12C812C8091D102880D8D301D
:101EE0002CF1692D0E94402D892F082E000C990B92
:101EF0008E159F0591F4809137038C9DA0018D9DD7
:101F0000500D112455954795559547959801609129
:101F10003603809135030E9478088B0CF1E0CF1ACC
:101F2000D108D1F68FEFE81AF80AA9CF87FFDDCFE5
:101F30008A0DDBCF81508093D102BC82B1CF90E07B
:101F400001966091470170E00E94622D8093D1025A
:101F50008C83A6CFEF92FF921F93CF93DF93EC0178
:101F600010E0EE24EA94F12C60914701161770F00E
:101F70000E94900D9A818C8190FF27C08F5F8C8387
:101F8000DF91CF911F91FF90EF900895209145012F
:101F9000422F410F5527551FCA019A01220F331FA7
:101FA000280F391F2C523D4F70E0C7010E94622D4F
:101FB000962F8C814091370360913603199F800DD5
:101FC00011240E9478081F5FCFCF8150D8CF909105
:101FD000340390FF0EC0909145012091460133E0FB
:101FE000939FF0011124EC52FD4F921718F00E94BC
:101FF000900D08958183608342839F5F3396F5CF70
:10200000A3E0B0E0E6E0F0E10C94FB2C8C018091C1
:10201000D30281110AC09E012F5F3F4F4FEF6FEF38
:102020000E9478088A818093D302F801648161302C
:1020300069F08091D30240E0662361F040E06230B5
:1020400011F44091D30280E060E004C06091D302BB
:1020500040E080E00E94E70FF801848190E0019663
:1020600063E070E00E94622D84832396E4E00C9488
:10207000172DA3E0B0E0EFE3F0E10C94FD2C90917C
:10208000340390FF0AC09E012F5F3F4F0E947808E3
:102090004B8169818A810E94E70F2396E2E00C94CC
:1020A000192DCF93DF93EC01E4E3F3E043816281E8
:1020B0008C810E9439108C818F5F8C83DF91CF914E
:1020C0000895CF93DF93EC01EC81F0E0EB5AF74FEA
:1020D0004491E4E3F3E0628181810E9439108C81B4
:1020E0008F5F8C83DF91CF91089580917102811170
:1020F00010C08091D80080618093D8008AE18A95D1
:10210000F1F700C08091D90080FF0AC081E0809380
:10211000710281E090917102913009F080E00895A0
:1021200082E0809371020E94EF0510925603F1CF76
:102130000E947510882359F0E0913D03F0913E0311
:10214000309729F00190F081E02D0995089580E005
:1021500008950F931F930E947510882329F00E9401
:102160005D071F910F9108950E945D0700919B02EA
:1021700010919C0220919D0230919E02600F711F70
:10218000821F931FEECF0E947510882319F00E94C2
:10219000690708950E94A910CB010895682F86E071
:1021A00090E00E941E2E0895282F220F220F220F4A
:1021B00090913A039770922B90933A03987F21E085
:1021C00009F420E090913A0320FB90F990933A03B0
:1021D0000E94BF0780913A030E94CE10089580911B
:1021E0003A0380FD1FC0816080933A03813019F467
:1021F00089E080933A0380913A030E94CE10809147
:10220000390380FF08C085E599E09F938F930E9472
:10221000CF050F900F9080913A038695869586950D
:102220000E94BF0708951092CF028091D00284606F
:102230008093D0028091390380FF08C08CE398E03E
:102240009F938F930E94CF050F900F900895B0E059
:10225000A0E0EDE2F1E10C94F22C7C015B01842E14
:10226000752E69018091720201E010E08A3010F44D
:102270000AE010E0C1E0D0E0B501C701F601099520
:10228000982E811114C021960C171D07B4F480916B
:10229000390380FF0CC07F928F9289E594E09F9371
:1022A0008F930E94CF050F900F900F900F90892D64
:1022B000CDB7DEB7EDE00C940E2DCC9F9001CD9FF5
:1022C000300D300D112490E080E045E34A95F1F7A0
:1022D0000000019628173907C1F7CECFB0E0A0E083
:1022E000E4E7F1E10C94EF2CFC016280448081E092
:1022F0008483E5E5F8E07490E4EDF8E0E491C091C2
:102300003703C695C158D0E0CC0FDD1FCD2FDD2798
:10231000812C75E0972EAA24AA94B12C55245A94A6
:10232000E719EE2EF12C80914701881638F00E94B3
:10233000900DCDB7DEB7E0E10C940B2DC82CD12C5D
:1023400082E0861568F09C9CF0019D9CF00D1124A4
:10235000E850FD4F8091350380838091360381835F
:10236000411023C09C9CF0019D9CF00D1124E8506D
:10237000FD4F1382128220914501C601820F911DEB
:102380009C01220F331F280F391F2C523D4F9C9C5C
:10239000F0019D9CF00D1124E850FD4F42816181B8
:1023A00080810E9478088394BECF9C9C80019D9C74
:1023B000100D112408501D4FF80183818823F1F07E
:1023C00081508383859DC0011124648170E00E9447
:1023D0004E2DFB01FF27EB5AF74F8491E82FE719A9
:1023E000E59DC0011124B7010E944E2D8091370355
:1023F000689FB0011124F8017283BDCF0E94D72DD0
:10240000B5010E94622D8C179D070CF0B4CFF2E04D
:10241000F61598F40E94D72DB5010E94622DF8019F
:1024200080830E94D72D209136032695622F70E07D
:102430000E94622D280FF80121839C9CF0019D9C35
:10244000F00D1124E850FD4F128280913703893C32
:1024500058F088EC9C9CF0019D9CF00D1124E850F4
:10246000FD4F8483838387CF8431A0F784E1F2CF4B
:1024700060913403669570E04BE050E085E391E0B5
:102480000E94E72D892B19F481E08093CF020E94EE
:10249000C3109093C9028093C8028091D0028460D7
:1024A0008093D0028091390380FF08C083E298E0D6
:1024B0009F938F930E94CF050F900F900895CF9216
:1024C000DF92EF92FF926B017C010E946908B701D5
:1024D000A60188E090E00E94302EFF90EF90DF9000
:1024E000CF900895A3E0B0E0E8E7F2E10C94F02C7F
:1024F000082FE62EF42EC22E9091340390FF59C07F
:1025000020913503281308C080913603861304C038
:1025100080913703841729F08091D00282608093E4
:10252000D002E92FE695AE2FB0E0A654BE4F8C91B5
:102530008093CE029E7F923009F03FC09E012F5FB4
:102540003F4F4F2D6E2D802F0E9478084B8169815F
:102550008A810E94E70F00933503E0923603F092E0
:102560003703CC2009F486C06091340370913503A1
:1025700080913603909137030E945F128091390356
:1025800080FF17C0809137031F928F93809136038D
:102590001F928F93809135031F928F9382ED97E066
:1025A0009F938F930E94CF050FB6F894DEBF0FBEA6
:1025B000CDBF2396EFE00C940C2D823019F4F090EF
:1025C0003703C9CF863009F453C0893009F450C0AD
:1025D000893109F6E9518E2F8170782E8E2F8095E2
:1025E0008170D82EE695F0E0E25EF74F1491612CF1
:1025F00097EFA92E97E0B92E60914701661618F063
:102600000E94900DA8CF619EC001112470E00E942D
:102610004E2D502E71102AC0560E862C912C809172
:10262000390380FF11C01F921F931F92DF921F92E8
:102630005F921F926F92BF92AF920E94CF050FB62A
:10264000F894DEBF0FBECDBF20914501820E911CD4
:102650009401220F331F280D391D2C523D4F4F2D51
:102660006E2D852D0E9478086394C6CF561AD5CF5B
:10267000022F71CF8091390380FF9BCF1F92FF9271
:102680001F92EF921F920F938BEA97E089CFE4E3BA
:10269000F3E0438121E1421B08F440E021E0628144
:1026A00081810E9472120895E4E3F3E0438121E105
:1026B000420F08F44FEF21E0628181810E94721283
:1026C0000895E4E3F3E0628121E1621B08F460E035
:1026D00021E0438181810E9472120895E4E3F3E0D6
:1026E000628121E1620F08F46FEF21E04381818173
:1026F0000E9472120895E4E3F3E0818121E04381B6
:10270000628188500E9472120895E4E3F3E08181AF
:1027100021E043816281885F0E9472120895809156
:102720003803882319F08150809338036091340373
:102730007091350380913603909137030E945F12A8
:10274000089580913803833018F48F5F80933803A5
:102750006091340370913503809136039091370373
:102760000E945F1208959091340390FF45C09170CC
:10277000811143C09260909334038091D0028160B4
:102780008093D002662309F43FC0609134037091B6
:10279000350380913603909137030E945F12809138
:1027A000390380FF0FC08091340386951F928F9369
:1027B00088E597E09F938F930E94CF050F900F902D
:1027C0000F900F9060913403669570E04BE050E0FD
:1027D00085E391E00E94E72D892B11F10E941311EE
:1027E00081E08093CB0220E0409137036091360373
:1027F000809135030E94721208958B3210F0946517
:10280000BACF880F982BB7CF8091390380FFDACFEA
:102810008091340386951F928F938AE397E0CACF05
:102820000E943812DDCF809134038160809334039D
:102830008091390380FF0DC01F9281E08F9384E760
:1028400097E09F938F930E94CF050F900F900F906A
:102850000F908091340361E086950E94B313089530
:10286000809134038695815009F48AE261E00E94E8
:10287000B31308958091340386958F5F8B3208F0EF
:1028800081E061E00E94B31308959091340390FFBA
:1028900008C09695981728F0961718F40E943A14D5
:1028A000089561E00E94B3130895E4E3F3E083E048
:1028B000808311828FEF828383831482AEECB2E037
:1028C00012968C911297836012968C93608171811D
:1028D000828193810E945F1208954F925F926F925E
:1028E0007F928F929F92AF92BF92EF92FF920F933F
:1028F0001F93CF93DF937B01FB0140805180628067
:1029000073809FB7F8948090420390904303A09007
:102910004403B09045039FBF84189508A608B708E4
:10292000F4E68F169104A104B10418F4C1E0442325
:1029300029F1C82F880FDD0BFE0183E0EE0FFF1F8A
:102940008A95E1F7EC5FFE4F8181928184589D4F1B
:10295000408150E00417150708F4A801B9010E944E
:10296000012ECE010E94772CC82F882339F00E94B7
:102970005D07F70160837183828393838C2FDF91DE
:10298000CF911F910F91FF90EF90BF90AF909F90CC
:102990008F907F906F905F904F900895A8E0B0E087
:1029A000E4EDF4E10C94FB2C85E0E4E3F3E0DE01DC
:1029B000119601900D928A95E1F78091CE02909147
:1029C000CF02A091D0028E839F83A88741E08885A3
:1029D000811101C040E008E010E09E012F5F3F4FF1
:1029E00067E972E084E00E946D1481111092D002B8
:1029F0002896E4E00C94172DA1E0B0E0E2E0F5E1C8
:102A00000C94FB2C80913A0380FF18C08695869524
:102A10008695898341E090918602981301C040E039
:102A200001E010E09E012F5F3F4F63E972E083E019
:102A30000E946D142196E4E00C94172D80E0E9CFFC
:102A4000A4E0B0E0E6E2F5E10C94FC2C40918F02AA
:102A50005091900260919102709192022FB7F89478
:102A60008091420390914303A0914403B0914503A8
:102A70002FBF841B950BA60BB70B11E08436910575
:102A8000A105B10570F10E94A9106E5F7F4F8F4FB5
:102A90009F4F69837A838B839C83809115019091EA
:102AA000160184589D4F4091140150E04530510566
:102AB00010F044E050E0BE016F5F7F4F0E94012E96
:102AC00082E090E00E94772C182F882351F00E941A
:102AD0005D0760938F0270939002809391029093B0
:102AE0009202812F2496E3E00C94182DEF92FF922E
:102AF0001F93CF93DF9300D000D000D0CDB7DEB7C7
:102B00007B0190E080E00E94772C182F882309F445
:102B10006AC04091070150E04115510511F041E0B4
:102B200050E0609108017091090164587D4FCE0119
:102B300006960E94012E4091780250917902609190
:102B40007A0270917B022FB7F894809142039091A2
:102B50004303A0914403B09145032FBF841B950B01
:102B6000A60BB70B84369105A105B10538F48DE7A6
:102B700092E00E94D8059E818917A9F181E090E03A
:102B80000E94772C882309F44EC040910F0150E039
:102B90004630510510F045E050E060911001709111
:102BA000110164587D4FCE0101960E94012E8DE7E0
:102BB00092E00E94D8059E81891335C00E945D076E
:102BC000609378027093790280937A0290937B02EB
:102BD00085E0FE013196A3E7B2E001900D928A955F
:102BE000E1F711E00BC085E0EDE7F2E0DE011196C0
:102BF00001900D928A95E1F71111EACF85E0E3E7A4
:102C0000F2E0D70101900D928A95E1F7812F269687
:102C10000FB6F894DEBF0FBECDBFDF91CF911F91ED
:102C2000FF90EF90089510E0E9CFA2E1B0E0EBE172
:102C3000F6E10C94F22C8E010F5F1F4F8AE0D80151
:102C40001D928A95E9F78FEAC82E81E0D82EF12CE3
:102C5000E12CAA24A394B12C2AEB822E21E0922EFF
:102C6000F60181916F018F3F09F442C0F894E82F7B
:102C7000E295EF70F0E021A18F70A50102C0440F32
:102C8000551F8A95E2F7CA01922F982B91A392A122
:102C90008095892382A3789400C0E4EBF1E0712C45
:102CA00031E021912F3F09F46BC0A22FA295AF70A4
:102CB000B0E090968C9190E02F7002C0959587952A
:102CC0002A95E2F780FD5CC0832F782A330F8E1699
:102CD0009F0639F7F601319780818F3F11F00E94EE
:102CE0000E0950EA5A95F1F7F801EE0DFF1D7082BA
:102CF0008FEFE81AF80AA5E0EA16F10409F0B0CF60
:102D00004AE050E0B8018FE992E00E94F42D00976C
:102D100041F02AE0F801AFE9B2E001900D922A9566
:102D2000E1F70091AA02892B69F181E080936902A1
:102D30000E946907909368028093670280916702FE
:102D4000909168020E944E07059700F110E000552F
:102D50001D4F45E050E06FE972E0C8010E94F42D7C
:102D6000C12C892B51F085E0EFE9F2E0D801019008
:102D70000D928A95E1F7CC24C3941092690207C0A2
:102D800080E0A3CF809169028111D8CFC12C0E942D
:102D90007510D82EE091AA02882309F49EC07E0106
:102DA000BBE0EB0EF11C85E0D7011D928A95E9F797
:102DB0000E2F10E000551D4FB0907202B9E0BB1508
:102DC00008F447C026E735E149E451E0B701C801FE
:102DD0000E942711882309F45EC020E235E146E510
:102DE00051E0B701C8010E942711882309F453C09C
:102DF0002CEF34E141E651E0B701C8010E942711F0
:102E0000882309F448C02EEC34E14BE651E0B701C9
:102E1000C8010E9427118823F1F1F9E0FB1508F49D
:102E200053C0109272028091A90290E045E050E0F8
:102E3000B70180559D4F0E94F42D21E02093700230
:102E4000892BE1F4D12C8D2D8C296296EDE00C9428
:102E50000E2D80916A0290916B020E944E07843F72
:102E6000914008F0AFCF80917002882359F385E03C
:102E7000D7011D928A95E9F710927002A091A902DC
:102E8000B0E0A055BD4F85E0FE013B9601900D924C
:102E90008A95E1F7D8CF809172028F3F31F08F5F32
:102EA000809372028A3008F4BECF0E946907909323
:102EB0006B0280936A028091390380FFD4CF89EE40
:102EC00093E00E943605CFCF8091390380FFA9CFD0
:102ED00086ED93E00E943605A4CFF0E0E055FD4F6B
:102EE00085E0ADE7B2E001900D928A95E1F78DE7BC
:102EF00092E00E94D80580937C028090820290909C
:102F00008302A0908402B090850280916C0290911F
:102F10006D02A0916E02B0916F0288169906AA0602
:102F2000BB06D1F080926C0290926D02A0926E026C
:102F3000B0926F020E94751081110EC00E945D0751
:102F4000861A970AA80AB90A80929B0290929C025C
:102F5000A0929D02B0929E02809186020E94BF07BD
:102F600088E0E7E8F2E0DE011B9601900D928A9579
:102F7000E1F72B85822F8695FC84ED84BE84098938
:102F80001A8910928E02112309F45DCF10FF0AC036
:102F90009091340320FF1AC091609093340360E055
:102FA0000E94B31311FF06C020E04B2D6E2D8F2D14
:102FB0000E94721212FF04C0002329F10E943812ED
:102FC00013FF41CF81E08093CB023DCF9E7F909352
:102FD00034038091390380FF0CC01F921F928FE150
:102FE00094E09F938F930E94CF050F900F900F90C6
:102FF0000F900E9413118091D00281608093D002C3
:103000000E94900DCFCF0E941311DACF0F931F9320
:10301000CF93DF938091610290916002892B80931E
:10302000F60190916202992391F0892B8093F60129
:1030300020E088EF91E0FC013191CF0131112F5F49
:10304000F1E08E3F9F07B9F721110E94470B48E03E
:1030500050E068E572E086EF91E00E94F42D892B44
:1030600009F441C088E0E6EFF1E0A8E5B2E00190A4
:103070000D928A95E1F7E0913D03F0913E03309780
:1030800091F10280F381E02D86EF91E00995809126
:10309000390382FF28C080FF04C08CE592E00E94C3
:1030A0003605D0E0C0E006E512E08091390380FFEC
:1030B0000EC0FE01EA50FE4F80811F928F931F9336
:1030C0000F930E94CF050F900F900F900F902196B5
:1030D000C830D10551F78091390380FF04C084E5E1
:1030E00092E00E943605DF91CF911F910F910895D4
:1030F00010926102E8EFF1E086E0DF011D928A950F
:10310000E9F790E080E00E949A0790E080E00E945A
:103110007507109260020E9406180895AAE2B0E0B6
:10312000E4E9F8E10C94FC2C88E593E02091F100AF
:10313000DC012D93CD01B3E080369B07B9F7809178
:103140005903833009F470C0B8F4813009F447C0E2
:10315000823009F4B1C08091E80083FF84C280917D
:103160005803909159039A3008F07DC2E92FF0E09E
:10317000E954F14D0C94762D8A3009F48CC08B30D3
:1031800009F46FC0893039F780915803813219F7FB
:1031900080915C0390915D030297E8F68091E800CE
:1031A000877F8093E8008091E80082FF38C090918B
:1031B000F3008091F200029731F48091F1008130A8
:1031C00011F0863021F48091F10080934B038091BF
:1031D000E8008B778093E8000E943F06BCCF809187
:1031E0005803813A09F0B7CF8091E800877F809338
:1031F000E80080915C0390915D03892B61F468E0A5
:103200008CE493E070E00E94EB068091E8008B77FD
:103210008093E800A0CF60E090E080E0F3CF809161
:1032200056038111C0CF97CF80915803813A09F09E
:1032300092CF80915C0390915D03892B09F08BCF35
:103240008091E800877F8093E8008091E80080FF0C
:10325000FCCF809148018093F1008091E8008E7747
:10326000B9CF80915803813209F075CF80915C030A
:1032700090915D03892B09F06ECF8091E800877FE4
:103280008093E8000E943F0680915A038093480192
:103290000E94781860CF80915803813209F05BCF8B
:1032A0008091E800877F8093E8000E943F0680912C
:1032B0005B0380934A034FCF80915803813A09F012
:1032C0004ACF8091E800877F8093E8008091E800F2
:1032D00080FFFCCF80914A03BECF803899F08238BE
:1032E00009F0C1C180915C038F70873008F0BBC1C9
:1032F0008093E9008091EB0085FB882780F910928C
:10330000E90006C0809154039091550391118260A9
:103310009091E800977F9093E8008093F1001092DD
:10332000F1008091E8008E779AC1882309F488C162
:10333000823009F098C180915A0381118BC180912C
:103340005C038F702FEF280F263008F08CC180931C
:10335000E9002091EB0020FF7DC1933031F4809192
:10336000EB0080628093EB0075C19091EB0090615F
:103370009093EB0021E030E001C0220F8A95EAF73C
:103380002093EA001092EA008091EB008860EACF77
:10339000811169C110915A031F778091E3008078F1
:1033A000812B8093E3008091E800877F8093E80081
:1033B0000E943F068091E80080FFFCCF8091E300EF
:1033C00080688093E30082E0111183E080935603CC
:1033D0004AC18058823008F046C120915A0330918A
:1033E0005B032C3DE3E03E07A1F583E08A838AE29C
:1033F00089834FB7F894DE01139620E03EE051E256
:10340000E32FF0E050935700E49120FF03C0E295D2
:10341000EF703F5FEF708E2F90E0EA30C0F0C796FC
:103420008D939D932F5F243159F74FBF8091E80012
:10343000877F8093E8006AE270E0CE0101960E94E7
:10344000EB068091E8008B778093E8000CC1C09672
:10345000E7CF80915C0390915D03432F5527433064
:10346000510509F44AC078F54130510509F47AC094
:103470008BE590E0EBE7F9E04230510509F0F3C04D
:103480002091E800277F2093E80020915E0330918F
:103490005F038217930708F49C0140E02115310572
:1034A00009F065C0411163C08091E80082FDC9CF79
:1034B00080915603882329F2853019F28091E80023
:1034C00083FFF2CFBECF4132510509F43CC04232F6
:1034D000510509F0C8C08330910508F0C4C0FC0153
:1034E000EE0FFF1FE851FE4F0190F081E02D8B5150
:1034F0009E4FDC018C9190E01AC0332721303105BA
:10350000D1F02115310561F02230310509F0ABC051
:10351000E8EEF9E0E4918E2F90E0E8EEF9E007C0E4
:10352000E2E1FAE0E4918E2F90E0E2E1FAE0009728
:1035300009F499C0A5CFE2E0FAE0E4918E2F90E083
:10354000E2E0FAE0F4CF8330910508F08CC0880FF8
:10355000991FFC01E251FE4F0190F081E02D89E0BE
:1035600090E08ECF82E190E0E6EDF9E089CF8091A6
:103570005603882309F465CF853009F462CF809122
:10358000E80083FD5ECF8091E80082FD8DCF8091C1
:10359000E80080FF83CF9091F3008091F200211525
:1035A000310519F08830910550F041E0089709F095
:1035B00040E08091E8008E778093E8006FCF4491DF
:1035C0004093F1003196215031090196E8CF8038BF
:1035D00009F049C08091E800877F8093E8008091DE
:1035E00057038093F1009DCE81113DC010915A0385
:1035F0001230C8F58091E800877F8093E80010932F
:1036000057030E943F06112311F084E005C080910A
:10361000E30087FDFACF81E08093560342E061EC3E
:1036200081E00E945E0642E261EC82E00E945E065A
:1036300042E261EC83E00E945E068091560313C073
:1036400080915A03813079F481E0933009F080E071
:10365000809355031092E9008091E800877F809362
:10366000E8000E943F068091E80083FF0AC0809135
:10367000E800877F8093E8008091EB008062809370
:10368000EB00AA96E3E00C94182D0E9478182FEF17
:1036900084E39CE0215080409040E1F700C00000AE
:1036A00088E19AE00FB6F894A895809360000FBE69
:1036B00090936000FFCF882321F00E944D0B0E9461
:1036C00006180895882339F090916102982B909301
:1036D00061020E9406180895882309F44DC08238BB
:1036E00079F40E94981081FF47C089E30E94610B22
:1036F0000E94061889E30E94540B0E940618089540
:10370000833859F40E94981080FF36C083E50E94E8
:10371000610B0E94061883E5EECF843859F40E94AD
:10372000981082FF29C087E40E94610B0E9406184E
:1037300087E4E1CF9CEF980F913AE8F290E2980F7E
:10374000983050F4877091E001C0990F8A95EAF79C
:10375000892F0E944D0BD1CF9BE5980F933028F411
:1037600090E080E00E949A070895885A8B3120F4F7
:1037700090E080E00E9475070895CF93C82F8823BA
:10378000C9F08238C9F40E94981081FD13C089E302
:103790000E94610B0E9406182FEF87EE93E02150E4
:1037A00080409040E1F700C0000089E30E94540B84
:1037B0000E940618CF9108958338A1F40E949810B2
:1037C00080FDF8CF83E50E94610B0E9406182FEF61
:1037D00081EE94E0215080409040E1F700C000006D
:1037E00083E5E4CF8438A1F40E94981082FDE2CFF3
:1037F00087E40E94610B0E9406182FEF81EE94E08F
:10380000215080409040E1F700C0000087E4CECF17
:103810008CEF8C0F813A68F4E8EFF1E08191C817E2
:10382000A1F121E0EE3FF207C9F78C2F0E94610B56
:10383000BFCF80E28C0F883068F4C77021E030E0A1
:1038400001C0220FCA95EAF780916102822B809312
:103850006102AECFEBE5EC0FE33040F4F0E0EC5862
:10386000FE4F808190E00E949A07A4CFC85ACB31C6
:1038700008F0A0CFEC2FF0E0EE0FFF1FE958FE4F4D
:10388000808191810E94750795CF8C2F0E94540BE7
:103890000E940618CACF0F931F93CF93DF93C62FB2
:1038A000D42F022FFC0182818823A9F06093620348
:1038B0000E9469079093610380936003C77081E061
:1038C00001C0880FCA95EAF70E94621BDF91CF9171
:1038D0001F910F91089580916203681335C0809104
:1038E0006003909161030E944E07883C910560F54A
:1038F00010E21D0FCD17B9F080E28C0F883040F434
:10390000C77081E001C0880FCA95EAF70E945B1B6F
:10391000183048F481E09D2F977001C0880F9A9568
:10392000EAF70E94621B802F0E94BD1B802F0E941D
:103930006C1B183058F6D77081E001C0880FDA95FB
:10394000EAF70E945B1BC2CFC77081E001C0880FFD
:10395000CA95EAF7F6CF67EE7EEF90E080E00E942E
:103960003C2E60E082E090E00E941E2E60E083E04A
:1039700090E00E941E2E109264021092630260E09A
:1039800074E184E090E00E943C2E60E086E090E0EC
:103990000E941E2E6FEF87E090E00E941E2E40E0F6
:1039A00050E0BA0188E090E00E94302E60E08DE0A7
:1039B00090E00E941E2E40E050E0BA0188E190E0C5
:1039C0000E94302E60E087E190E00E941E2E40E0D1
:1039D00050E0BA018CE190E00E94302E70E060E08F
:1039E00080E290E00E943C2E40E050E0BA0188E185
:1039F00090E00E94302E0E94EF1083E00E94D410CD
:103A00000E94131421E04FEF6FEF80E00E947212CA
:103A100061E08BE00E94B31340E050E0BA018FE018
:103A200090E00E94302E40E050E0BA0183E190E047
:103A30000E94302E089590E080E00E94182E873E6C
:103A40009E4F51F00E94AB1C80913A0384708962B2
:103A500080933A030E94CE1086E090E00E940A2EE6
:103A600080933A03803320F08770886280933A0312
:103A700090913A03892F817090FF04C0892F869519
:103A8000869586950E94BF070895CF93C82F809191
:103A9000AE0282FB992790F99C17F9F0C0FB82F9DE
:103AA0008093AE026091AD027091AE0284E090E02E
:103AB0000E943C2E82E00E94650C8091390380FFB9
:103AC0000CC01F92CF938FE392E09F938F930E943D
:103AD000CF050F900F900F900F90CF910895A5E014
:103AE000B0E0E5E7FDE10C94F32C7C01FC0183815F
:103AF0009481892B31F08081918189238F3F09F056
:103B000024C52596ECE00C940F2D0E94A40B182FD1
:103B1000682F89819A810E94180C69817A81812F8E
:103B20000E940A0A8C01F7018281882309F474C576
:103B30000230F8E71F0709F4BAC0A8F4011538E706
:103B4000130709F449C0013088E7180709F459C080
:103B5000F801E851FC47E730F10508F0FAC0EF53EF
:103B6000F14D0C94762D043098E7190709F47AC0CA
:103B700008F449C00530F8E71F0751F790913A0360
:103B8000892F8695869586958F5F8F719770863081
:103B900008F0BEC0880F880F880F892B80933A03E6
:103BA00080913A03887F91E009F490E080913A0394
:103BB00090FB80F980933A030E94CE1080913903E4
:103BC00080FF4AC080913A038695869586951F921C
:103BD0008F9389E991E038C085E00E94D4108091EC
:103BE0005702877009F48DCFF7018281882309F489
:103BF00088CF8091AE0282FF84CF82E00E94650C64
:103C000080CF80E0EACF80913A03982F987F79F0B7
:103C1000885080933A03887F91E009F490E0809186
:103C20003A0390FB80F980933A030E94CE10809172
:103C3000390380FF11C080913A0386958695869559
:103C40001F928F9380E491E09F938F930E94CF0502
:103C50000F900F900F900F9080913A038695869564
:103C6000869553C080913A03982F96959695969590
:103C7000953040F49F5F990F990F990F8770892BAA
:103C800080933A0380913A03816080933A030E94C3
:103C9000CE108091390380FFDFCF80913A03869563
:103CA000869586951F928F9388E591E0CDCF1091F0
:103CB0003A0311708091390380FF58C41F921F93FB
:103CC00083E891E09F938F930E94CF050F900F9010
:103CD0000F900F90112309F44BC480913A0380FF99
:103CE0007ECF80913A038E7F80933A030E94CE105C
:103CF0008091390380FF08C080E791E09F938F9304
:103D00000E94CF050F900F9080E00E94BF0767CF01
:103D100090933A0345CF26E241EE61EEC7010E943F
:103D20004B1C5DCF27E245EE65EEF8CF26E241EE73
:103D300060EEF4CF27E245EE64EEF0CF26E241EEEE
:103D400062EEECCF27E245EE66EEE8CF28E241E0F6
:103D5000EBCF10926203C8019057839708F00BC411
:103D600084E090E00E94182E9093AE028093AD0202
:103D7000F801E150F047E232F10520F4E853F14D4B
:103D80000C94762D8091AD0281608093AD0295C038
:103D90008091AE0288608093AE028FC08091AD02A8
:103DA0008260F3CF8091AD028460EFCF8091AD024D
:103DB0008860EBCF8091AE028160EDCF8091AE0242
:103DC0008260E9CF8091AD028061DFCF8091AD024A
:103DD0008062DBCF8091AD028064D7CF0E947818DB
:103DE0008091AD028068D1CF8091AD028C60CDCF43
:103DF0008091AE028360CFCF8091AD028E7FC5CF20
:103E00008091AE02877FC7CF8091AD028D7FBDCFFD
:103E10008091AD028B7FB9CF8091AD02877FB5CF06
:103E20008091AE028E7FB7CF8091AE028D7FB3CFEF
:103E30008091AD028F7EA9CF8091AD028F7DA5CFFD
:103E40008091AD028F7BA1CF0E9478188091AD0246
:103E50008F779BCF8091AD02837F97CF8091AE0209
:103E60008C7F99CF8091AD0282FB992790F921E058
:103E7000922790FB82F990FB83F987CF8091AE0265
:103E8000982F909591708E7F892B90FB81F983CF2D
:103E90009091AD02892F8F7B96FF806476CF0E9430
:103EA00078189091AD02892F97FB87F980586DCFD4
:103EB00061E08EE090E00E941E2E6091AD02709154
:103EC000AE0284E090E00E943C2E0E94781887CEDB
:103ED00060E0EFCF9091AD02892F8F7E94FF8061DB
:103EE00054CF9091AD02892F8E7F90FF81604DCF8E
:103EF0009091AE02892F877F93FF88604CCF85E336
:103F000049C38091FE01811104C089E20E94540BD3
:103F100043C385E3FBCF8091390380FF10C08091BC
:103F20003403809581701F928F9385EE91E09F936B
:103F30008F930E94CF050F900F900F900F9080915C
:103F4000340380FF2AC08E7F809334036091340352
:103F50007091350380913603909137030E945F1270
:103F60008091390380FF0FC08091340381701F92CC
:103F70008F938DEA91E09F938F930E94CF050F90CE
:103F80000F900F900F900E9413118091D0028160CA
:103F90008093D0020E94900D22CE0E9413141FCE57
:103FA00040E354E16AE374E10E94630818CE4AE3F7
:103FB00054E160E374E1F8CF4BE753E165E873E166
:103FC000F3CF45E853E16BE773E1EECF41E653E110
:103FD0006EE673E1E9CF4EE653E161E673E1E4CFCB
:103FE00047E453E164E573E1DFCF44E553E167E47F
:103FF00073E1DACF4FE853E161EA73E1D5CF41EAEB
:1040000053E16FE873E1D0CF61E081E00E94B31328
:10401000E6CD65E082E00E944514E1CD68E086E0EF
:10402000FACF6EE089E0F7CF64E18FE0F4CF67E18B
:1040300085E1F1CF61E088E1E9CF62E289E1EBCF90
:1040400061E083E2E3CF6AE285E2E5CF9091390354
:10405000892F8E7F90FF81608093390380FF05C098
:104060008EE292E00E943605BACD8CE192E0FACF62
:104070006FEF7FEF90E080E00E943C2E0E94451B96
:104080008091AE0282FB882780F991E089270E9407
:10409000451DF701828100811181882309F44AC0FE
:1040A000C8010E94A40BD82E682FC8010E94180CCA
:1040B000B8018D2D0E940A0A0E94290AB82E192FD4
:1040C000882EF701A280958092949FE0992280919A
:1040D00057028770F1F0DA2CAA20E1F0812F807F5F
:1040E000803451F080E28B0D883098F0911004C03C
:1040F000812F807E803269F08091AE0282FF09C0FC
:1041000082E00E94650C809157028770DD24D39471
:104110008111D12CC12EC2948FE0C822FBE0FC1586
:1041200008F471C0EC2DF0E0E651F14D0C94762DC1
:1041300080E0ADCFC8010E94E50BD82EB9CF012F8A
:104140000F70107F11F00295007FAA20B9F00023B4
:1041500069F080E28B0D883010F0811009C08091E9
:104160006102082B009361020E9406188B2D49C042
:1041700080916002082B00936002F6CF8B2D0E9485
:104180006C1B002309F43FC080E28B0D883010F0D7
:10419000811004C0802F0E944D0B06C000958091B5
:1041A00060020823009360020E9406182CC0012FB1
:1041B0000F70107F103211F00295007F882089F077
:1041C00021E0821609F47CC0AA2009F486C0992057
:1041D00009F47CC0F701858180FFC8CF8F7085838B
:1041E00075C02091AE0222FD43C0AA20D9F1002360
:1041F00039F080916102082B009361020E94061839
:1042000080E00E94BD1BEC2DE850FF0B349710F4AA
:104210000E949810DD20A9F08091570280FD11C006
:10422000F70112828595859585950E94810CC701BD
:104230000E946F1D809157028595859585950E94F6
:10424000530C85E0F701DE01119601900D928A95DD
:10425000E1F709811A81C8010E94E50BB8010E94AB
:104260000A0A4FCC80E00E946C1B002361F292CFBF
:10427000AA20A1F090916202802F892B911003C097
:104280000E94621BC0CF31E09312FACF22FFBBCF56
:10429000891709F4B8CF80936202B5CF911006C098
:1042A0000E94470B802F0E945B1BADCF81E09816C8
:1042B00009F4A9CF802F0E945B1B0E94470BA3CF5C
:1042C000AA2031F095E0991508F49DCF802FD8CF22
:1042D000E4E0E91508F497CFE5CF992019F3F9E365
:1042E0008F122CC12FEF37EE83E0215030408040F9
:1042F000E1F700C0000022C1812F8695869583706A
:1043000069F0813009F07FCF8B2D912F9370A11030
:1043100002C080E090E00E94750775CF8B2D912F31
:104320009370A11002C080E090E00E949A076BCFCA
:10433000912F937009F03FC0A11065CF4B2D42958E
:1043400046954770440F440F8B2D8F7090E0042EDC
:1043500002C0880F991F0A94E2F730E020E0B4FE13
:1043600009C02FE030E002C0220F331F4A95E2F768
:1043700020953095169516951370123099F078F4B3
:104380004091630250916402113039F0822B932BDB
:10439000842395230E94910C36CF842B952B822B5E
:1043A000932BF8CF822B932B2091630230916402E0
:1043B00082279327EFCF9695AA2011F0912F917025
:1043C000992309F420CF4B2D429546954770440F11
:1043D000440F8B2D8F7090E0042E02C0880F991F20
:1043E0000A94E2F730E020E0B4FE09C02FE030E0AC
:1043F00002C0220F331F4A95E2F72095309516959B
:1044000016951370123099F078F44091AB025091E8
:10441000AC02113039F0822B932B842395230E9418
:104420004E0CF1CE842B952B822B932BF8CF822B25
:10443000932B2091AB023091AC0282279327EFCFD0
:104440001F70AA2029F0812F0E94810C8B2D18CF7C
:104450008B2D0E945B1B812F0E94530CD4CE8B2D81
:1044600092EF891699F1981570F0E0EF8E16D1F061
:10447000F1EF8F1691F0AA2009F45BC0911076CE6F
:10448000812F8F7127C023EF821639F134EF831209
:10449000F2CF8091AE0282FD2EC0812F8F71AA20B3
:1044A000D9F218C0AA2069F084E0891508F4ABCECF
:1044B0001F7181E090E002C0880F991F1A95E2F702
:1044C000B8CF95E0991508F49ECEF2CF812F8F7169
:1044D000A110C2CF0E94810C96CE90E080E0AA206D
:1044E00009F49DCF1F7181E090E002C0880F991FF1
:1044F0001A95E2F794CFAA2089F01F71812F0E94AC
:10450000810C8091AE0282FF07C0E8E01E9FC001CF
:104510001124836080935702812FDCCF81E00E94B9
:10452000650CF1E0F91508F06ECE82E00E94650C92
:104530006ACE992039F0893309F4D4CE8B2D0E94AC
:104540006C1B61CE812F8F7187CF85E0DE011196C4
:1045500001900D928A95E1F7F701228189819A8174
:104560002111D3CA0E94E50B182FD7CA1111B9CB5C
:104570000E94EF1034CB0631FCE71F0781F48091D5
:1045800061028A7A91E009F490E09093FE01811132
:10459000B6CC89E20E94610B0E94061820CB033042
:1045A0003CE7130709F464CD38F501309CE719079F
:1045B00009F464CD08F04ACD01151C4709F069CD16
:1045C0000E9478182FEF34E38CE021503040804077
:1045D000E1F700C0000087E797E790930108809318
:1045E000000888E19AE00FB6F894A89580936000DF
:1045F0000FBE90936000FFCF0B352CE7120709F434
:1046000097CD0C353CE7130709F43ACD0A351C4722
:1046100009F03FCD81E03BCDF801E851FC47E730A0
:10462000F10508F49CCA06312CE7120709F469CC9D
:10463000809161028272F801E052F847E531F1059C
:1046400008F027CDEA50F14D0C94762D1F93CF93AF
:10465000DF9380912402807F09F04BC0809121027A
:10466000882309F446C080915602C09125024091EA
:104670001F02509120026091220270912302D42FD8
:10468000D52316E0C817A9F190E061157105A9F1CD
:10469000DF3F99F1189FF001199FF00D1124DF0100
:1046A000AA5DBD4F11962C911197251326C02C9110
:1046B000241323C012962C91129721111EC0139619
:1046C0002D913C91261B370B283C3105B0F480918D
:1046D00024028F70806180932402E55DFD4F80810C
:1046E0008F70806180838FE192E00E946F1D0E9435
:1046F0009A0BDF91CF911F91089501968770C2CFD9
:10470000A1E1B0E0E6E8F3E20C94F32C8C0185E043
:10471000F801DE011D9601900D928A95E1F7F801EE
:10472000E2808FE1882E82E0982E40912202509103
:1047300023024115510509F430C190911F022091C7
:104740002002892F82238F3F09F427C1D080C180A6
:10475000A380B480F0902102B501641B750BFF208B
:1047600009F4E7C080912402382F307F683C71053E
:1047700008F0ABC0311178C0FE2C2C1114C09D1173
:1047800012C0E11010C08F70806180932402C401B8
:104790000E946F1D80912402F80185838F2D619600
:1047A000ECE00C940F2DA114B104C9F18D2D8C21D6
:1047B0008F3FA9F181E08E2580FF05C04E2D6C2D25
:1047C0008D2D0E947A0BA114B10459F18D2D8C21ED
:1047D0008F3F39F181E08E25F82FF170BF2E80FFD9
:1047E00039C04E2D6C2D8D2D0E947A0BA82E811173
:1047F00031C0DD86CE868D859E850E94D80B292FFF
:1048000022952F70243078F49F702230A8F09923DD
:10481000B9F0F8019581907F99F4FA2CBFCF80E030
:10482000CBCF80E0D9CF2A5F2F70223068F0C8014B
:104830000E946F1DAB2CF1CF992311F0882369F3EF
:10484000805E883050F3F3CF803F38F3815F833050
:1048500070F7E3CFEE2009F4A1CF809124028160AC
:1048600080932402F12C9ACF2C1105C09D1103C016
:10487000EE2009F477C0C8010E94960C882309F144
:10488000EE20F9F080912402803270F020911F0216
:104890003091200238872F831986BB86AA868C87A1
:1048A000CE0107960E946F1D86E0F801AFE1B2E0ED
:1048B00001900D928A95E1F70E942623FF24F3943C
:1048C0006DCFC8010E946F1DF9CF31110AC08FE171
:1048D00092E00E946F1D86E0F40111928A95E9F73B
:1048E000C1CF2C110EC09D110CC0E1100AC08583F0
:1048F000C8010E946F1D86E0F40111928A95E9F7C4
:104900004DCFC8010E94960C8823D9F2EE20C9F23F
:1049100080912402803240F220911F0230912002C7
:104920003A8329831B82BD82AC828E83CE0101969D
:10493000B9CF683C7105F8F6FE2CEE2011F22C116F
:104940001EC09D111CC08091240280FD0FC0982FB5
:10495000907F61F08583903F31F0982F907F905F3A
:104960008F70892B8583C8010E946F1D86E0F80136
:10497000AFE1B2E001900D928A95E1F70FCFC80147
:104980000E94960C811190CF8091240281608093C7
:104990002402C8010E946F1D01CFEE2009F491CFBF
:1049A000C8010E94960CF82E882309F48ACF86E06D
:1049B000F801AFE1B2E001900D928A95E1F78091A4
:1049C0001F02909120020E94D80B0E942623E6CE5F
:1049D000A7E1B0E0EEEEF4E20C94FC2C4B8B5C8B88
:1049E0006D8B7E8B8F8B6111109260021A8A198AEF
:1049F00085E0FE017396DE011D9601900D928A9569
:104A0000E1F786E0FE013D96DE01179601900D92DA
:104A10008A95E1F7CE0107960E948023811112C08A
:104A200086E0FE013796DE01119601900D928A957F
:104A3000E1F78A859B85892B29F088859F818923C9
:104A40008F3F81F516E080915602909125028913DF
:104A500017C06796E3E00C94182D96E0929FD00162
:104A6000939FB00D1124AA5DBD4FFE0131960190B8
:104A70000D929A95E1F7809325020E949A0BE2CF5E
:104A8000819FC00111248A5D9D4F0E94802388234D
:104A900001F38091560290E00196877099278093E8
:104AA0005602D1CF2091250230E0C90101968770CE
:104AB0009927409156024817190679F60E947818EE
:104AC000109225021092560286E0EFE1F2E0DF013B
:104AD0001D928A95E9F7B6CFA5E0B0E0E2E7F5E2EE
:104AE0000C94FB2C0E9469078C01809165029091C7
:104AF000660280179107A1F08FEF89838A831B825A
:104B00000E9469078160782F9D838C8349815A8137
:104B10006B818D810E94E8241093660200936502E8
:104B20002596E4E00C94172D1F920F920FB60F926A
:104B300011242F933F934F935F936F937F938F93A2
:104B40009F93AF93BF93CF93DF93EF93FF93D09156
:104B5000E900DF708091EC00C82FC17080FDC0E8D3
:104B60001092E9008091F000877F8093F0007894A4
:104B70000E948E181092E9008091F0008860809366
:104B8000F000CD2BCF70C093E900FF91EF91DF9142
:104B9000CF91BF91AF919F918F917F916F915F91D5
:104BA0004F913F912F910F900FBE0F901F9018952E
:104BB0001F920F920FB60F9211242F933F934F9392
:104BC0005F936F937F938F939F93AF93BF93EF9375
:104BD000FF938091E10082FF15C08091E20082FF87
:104BE00011C08091E1008B7F8093E1002091480308
:104BF0002F5F822F62E30E94342D992309F4C0C0F5
:104C0000209348038091DA0080FF28C08091D8006B
:104C100080FF24C08091DA008E7F8093DA0080913B
:104C2000D90080FFE3C080E189BD82E189BD09B47C
:104C300000FEFDCF81E08093560387E699E00E9455
:104C4000360580914903811109C00E94EF050E9439
:104C500090068091E20084608093E2008091E10000
:104C600080FF1BC08091E20080FF17C08091E200AE
:104C70008E7F8093E2008091E20080618093E20069
:104C80008091D80080628093D80019BC85E0809321
:104C900056038FE699E00E9436058091E10084FF7B
:104CA0002FC08091E20084FF2BC080E189BD82E1AA
:104CB00089BD89B5982F917080FFFBCF8091D80076
:104CC0008F7D8093D8008091E1008F7E8093E100FA
:104CD0008091E2008F7E8093E2008091E20081600B
:104CE0008093E20080915703882309F489C084E00F
:104CF0008093560383E799E00E943605809156031E
:104D00008091E10083FF2BC08091E20083FF27C0E8
:104D10008091E100877F8093E10082E080935603D9
:104D2000109257038091E1008E7F8093E100809183
:104D3000E2008E7F8093E2008091E20080618093A8
:104D4000E20042E060E080E00E945E068091F000B8
:104D500088608093F00087E799E00E943605FF9114
:104D6000EF91BF91AF919F918F917F916F915F91E3
:104D70004F913F912F910F900FBE0F901F9018955C
:104D80001092480380914703882309F43BCF809118
:104D900056038430C1F49091E9009F702091EC009B
:104DA000822F817020FD80E8892B93E09093E900A9
:104DB0009091EB0090FF04C09091EE0097FD08C029
:104DC0008F708093E900109247031CCF1092F1007E
:104DD0009091E80095FDFACF9091E80090FFF0CF18
:104DE0009091E8009E779093E800EACF19BC10926A
:104DF00056038BE699E00E943605109249032ECFA8
:104E00008091E30087FD93E09093560373CF7894ED
:104E10001F921FB61F9211248F939F93AF93BF933E
:104E20008091420390914303A0914403B0914503C4
:104E30000196A11DB11D8093420390934303A0935B
:104E40004403B0934503BF91AF919F918F911F9001
:104E50001FBE1F9018951F921FB61F9211248F938B
:104E60009F93AF93BF9380914103811113C08091B1
:104E7000420390914303A0914403B09145034196AE
:104E8000A11DB11D8093420390934303A09344035B
:104E9000B0934503BF91AF919F918F911F901FBE1B
:104EA0001F90189500D000D00F92CDB7DEB785B710
:104EB000806885BF85B7806885BF84B7877F84BFDA
:104EC0000FB6F894A8958091600088618093600087
:104ED000109260000FBE80E890E00FB6F8948093C7
:104EE0006100909361000FBE88ED9CE09093F50106
:104EF0008093F4010E94EF050E9490068091E200E9
:104F000084608093E2007894809156038823A1F016
:104F10001091E9001F709091EC00892F817090FD35
:104F200080E8182B1092E9008091E80083FD0E9430
:104F30008E181F701093E90082E084BD93E095BD48
:104F40009AEF97BD80936E0010929B0210929C0284
:104F500010929D0210929E020E94751080932C0167
:104F600080912C01882309F4D8C11092430186E076
:104F7000809344010E94751081110E948B2B8091B7
:104F80002C0180912C0195E0811190E09093AA0270
:104F900085E0891B8093A9020FEA11E0D8018D9169
:104FA0008D018F3F11F00E940E09B1E0043B1B07F9
:104FB000A9F704EB11E05AEBE52E51E0F52EF801CC
:104FC00081918F018F3F11F00E940E09E016F106CA
:104FD000B1F78AE0E0EBF2E0DF01282F1D922A957D
:104FE000E9F7EFE9F2E0DF011D928A95E9F790E039
:104FF00080E00E94182E873E9E4F11F00E94AB1C4D
:1050000082E090E00E940A2E8093390384E090E0D1
:105010000E94182E9093AE028093AD0283E090E040
:105020000E940A2E90E00E94910C259A2D9882E809
:105030008093800089E1809381008FEF9FEF9093B0
:105040008700809386000E941B1D0E941B1D80917B
:10505000AF028111EAC08091390380FF14C081EB57
:1050600095E09F938F930E94CF05809139030F9015
:105070000F9080FF08C08BE995E09F938F930E946B
:10508000CF050F900F9090E080E00E94182E873E91
:105090009E4F81F08091390380FF08C083E795E03F
:1050A0009F938F930E94CF050F900F900E94AB1C8F
:1050B0000E94551488E090E00E94122E6093340301
:1050C0007093350380933603909337038091D00219
:1050D00083608093D0026E7FD1F48091390380FF8A
:1050E00008C08AE295E09F938F930E94CF050F90AE
:1050F0000F900E94551488E090E00E94122E609359
:1051000034037093350380933603909337030E94E2
:1051100069088091390380FF76C081E195E09F9313
:105120008F930E94CF05809139030F900F9080FFDD
:105130006AC08091340381701F928F9384EF94E052
:105140009F938F930E94CF05809139030F900F900A
:105150000F900F9080FF57C08091340386951F9267
:105160008F9389ED94E09F938F930E94CF05809158
:1051700039030F900F900F900F9080FF44C08091E3
:1051800035031F928F938FEB94E09F938F930E9430
:10519000CF05809139030F900F900F900F9080FFF3
:1051A00032C0809136031F928F9385EA94E09F93DB
:1051B0008F930E94CF05809139030F900F900F902D
:1051C0000F9080FF20C0809137031F928F938BE850
:1051D00094E09F938F930E94CF05809139030F90A5
:1051E0000F900F900F9080FF0EC0809138031F9298
:1051F0008F938FE694E09F938F930E94CF050F903B
:105200000F900F900F901092CF028091D002846087
:105210008093D0028091340380FF04C060E08695C3
:105220000E94B31381E08093AF020E947510811138
:1052300002C00E948E2B8DE291E090933E038093FA
:105240003D0338E1232E312C4AEB442E42E0542E0C
:1052500080915603853081F488EC95E00E943605F4
:1052600012E180915603853009F45BC00E947818E2
:105270000E941B1D0E9498100E9415169AEBE92EA1
:1052800092E0F92E20EB622E22E0722E24EC32E026
:10529000D301F70191918D912E173F0709F47AC040
:1052A0009817C1F38091390381FD24C10E947510C4
:1052B000A82E10E0D3010D913D01F701B1907F01BF
:1052C000B01629F1D12CCC24C394B0268B2D8C217F
:1052D000B1F0AA20A1F0D9821A8391E0802F8C210D
:1052E00009F490E09B830E9469078160782F9D8379
:1052F0008C8349815A816B818D810E94E824D394EB
:10530000CC0CF6E0DF12E2CFF701319700831F5F8C
:105310001A3081F60E945D0741C086E08093430108
:1053200027CE80915603843029F180E00E94BF0788
:1053300010924103F0E40FB6F894A8952092600013
:105340000FBEF093600083B7817F846083BF83B713
:10535000816083BF7894889583B78E7F83BF0FB6B3
:10536000F894A89580916000886180936000109205
:1053700060000FBE80915503882309F472CF0E940C
:105380001516E0EBF2E08191811156C14E165F06D1
:10539000D1F767CF981386CF0E946C250E947510B5
:1053A0008091CF02882309F476C08091CE02E091EB
:1053B0003403E695E81BE093CA02823009F0D0C0BE
:1053C000F0E0EC5DF94FE4910E2F10E0F1E6CF2E06
:1053D000F0E1DF2E8091CB02882361F01092CB02A6
:1053E0000E94C3109093C9028093C8021092CD020C
:1053F0001092CC020E94C3102091C8023091C902C1
:10540000AC01421B530B9A012F3F3F4708F043C0AA
:105410002091C602222311F11092C6022091C402EB
:105420003091C502821B930B8F3F9F47B8F4205DDC
:105430003A483093C5022093C4028091390380FF1B
:1054400008C08AEE95E09F938F930E94CF050F903E
:105450000F908091D00288608093D002E090CC02BF
:10546000F090CD02E091C802F091C9020E0F1F1F0B
:105470001093C9020093C80288EC92E0F6010995E6
:105480008091CC029091CD02892B29F4EF2819F05C
:1054900081E08093C6020E949810182F8091C70265
:1054A000181709F4D5CE1093C7020E945D078091AA
:1054B000390382FFCDCE80FFCBCE8FE296E00E94F3
:1054C00036058091390380FFC3CE1F921F938AE275
:1054D00096E09F938F930E94CF05809139030F90A0
:1054E0000F900F900F9080FFB3CE88E296E00E945D
:1054F0003605AECE8BED95E00E943605A0EBAA2EC8
:10550000A2E0BA2E10E000E0B6ED8B2EB5E09B2EA7
:105510008EECC82E85E0D82E1F930F939F928F920A
:105520000E94CF0583ED95E00E943605D5018D914F
:105530005D010E94C00C1F928F93DF92CF920E9458
:10554000CF058CEC95E00E9436050F5F1F4F0FB61C
:10555000F894DEBF0FBECDBF0A301105E9F6A6CE26
:10556000863059F4F0E0EF5DF94FE4910E2F10E032
:10557000E1E5CE2EE0E1DE2E2DCF893061F4E69517
:10558000F0E0E25EF94FE4910E2F10E07AEAC72EC8
:105590007FE0D72E1FCF8F3061F4E695F0E0E55E17
:1055A000F94FE4910E2F10E06FE1C62E6FE0D62E7A
:1055B00011CF853159F4F0E0E85EF94FE4910E2FF8
:1055C00010E05AE9C52E5EE0D52E04CF08E210E0C7
:1055D00028E1C22E2EE0D22E883109F4FBCE833290
:1055E00049F4E6E1F6E00591149140E0C42E40E173
:1055F000D42EF0CE04EF11E09BEDC92E9DE0D92E04
:10560000843209F4E7CE853281F48E2F63E00E9464
:10561000342DE92FF0E0ED5EF94FE4910E2F10E00C
:105620003EE6C32E31E1D32ED5CE00ED17E089E45E
:10563000C82E87E0D82ECECEF0E1F9BD19BD09B451
:1056400000FEFDCF8091D8008F7D8093D80080919F
:10565000E00082608093E0008091E00081FDFCCF5B
:105660000E947818FECD8EE1489B02C08150E1F780
:10567000489BFECF0895589880E28A95F1F7589A92
:105680000895FC013BE03A95F1F798E020E080E0D6
:1056900031E040E14A95F1F7880F489B02C08160F4
:1056A000232742E04A95F1F7000040E14A95F1F7DF
:1056B000915079F790E19A95F1F799B132E03A95E6
:1056C000F1F7000040E14A95F1F7917092272081AF
:1056D000920F90830895A1E0B0E0E1E7FBE20C9423
:1056E000F92C19828C017C01E60EF11C0E151F05A8
:1056F00041F481E09981911180E02196E6E00C94DB
:10570000152D0E94332BCE0101960E94412BF801EA
:1057100081938F01EBCF509A589A08955098589AD8
:10572000E89AE9E6F0E080818C7F808308956150FB
:10573000770B91E001C0990F6A95EAF720E031E01C
:10574000911108C0222391F0589A80E28A95F1F7CE
:1057500058980895492F482339F0589A232740E252
:105760004A95F1F79695ECCF5898F9CF5898EDCF28
:10577000FF920F931F93CF93DF93EC018C01060FE1
:10578000111DC017D10729F4CDB7DEB7E5E00C94A1
:10579000162DF9900E943B2B68E08F2D0E94972BCD
:1057A000F0CF1F920F920FB60F9211240F931F93F9
:1057B0002F933F934F935F936F937F938F939F9319
:1057C000AF93BF93EF93FF93CF93DF930F92CDB738
:1057D000DEB719820E94332BCE0101960E94412B25
:1057E000082F069506950695282F22952570902F4F
:1057F0009570290F922F937026952695920F9827D2
:1058000097708981982B09F05CC0063008F059C068
:1058100080E18A95F1F7589A509A82E08A95F1F7DB
:1058200000C0589888E0089F80011124D801AC5F1F
:10583000BE4F1696ED91FC9117973097A9F06091A5
:10584000AD017091AE0114962D913C911597260FE4
:10585000371F11968D919C911297680F791F13969F
:105860004C9113978C910995F801EC5FFE4F638181
:10587000662351F02091AD013091AE018481958174
:10588000820F931F0E94B82B0E943B2B80E18A95C8
:10589000F1F758985098589A80E18A95F1F7F801F5
:1058A000EC5FFE4F6081662351F02091AD01309195
:1058B000AE0181819281820F931F0E946B2B0E9407
:1058C000332B0F90DF91CF91FF91EF91BF91AF916B
:1058D0009F918F917F916F915F914F913F912F9108
:1058E0001F910F910F900FBE0F901F9018950F935F
:1058F0001F93CF93DF93EC0106970CF04CC0F89404
:10590000509A589885E08A95F1F700009C2F96955B
:1059100095708C2F8570980F892F8370969596952A
:1059200023E0CC0FDD1F2A95E1F7980F8E01092B9C
:105930000E943B2B00C068E0802F0E94972B80E1E3
:105940008A95F1F75098589A489B1EC087E090E0DE
:1059500048991CC0FE01EC5FFE4F63816623F9F09D
:105960002091AD013091AE0184819581820F931F0A
:105970000E946B2B811113C0509A589A7894DF9132
:10598000CF911F910F91089500C0DECF019729F4A8
:10599000509A589A789480E0F2CF00C0D9CF0E94F4
:1059A000332B80E28A95F1F75898509A80E18A95D6
:1059B000F1F7CC5FDE4F6881662351F02091AD0195
:1059C0003091AE0189819A81820F931F0E94B82B7A
:1059D0000E943B2B789481E0D2CF2F923F924F923E
:1059E0005F926F927F928F929F92AF92BF92CF926F
:1059F000DF92EF92FF920F931F93CF93DF93CDB778
:105A0000DEB7CA1BDB0B0FB6F894DEBF0FBECDBFEF
:105A100009942A88398848885F846E847D848C84C0
:105A20009B84AA84B984C884DF80EE80FD800C81C9
:105A30001B81AA81B981CE0FD11D0FB6F894DEBFAC
:105A40000FBECDBFED010895DB018F939F930E94A0
:105A5000712EBF91AF91A29F800D911DA39F900DBC
:105A6000B29F900D11240895991B79E004C0991FED
:105A7000961708F0961B881F7A95C9F780950895A8
:105A800087FB082E062687FD819567FD61950E949C
:105A9000342D0EF4919507FC81950895AA1BBB1B2C
:105AA00051E107C0AA1FBB1FA617B70710F0A61B1E
:105AB000B70B881F991F5A95A9F780959095BC013F
:105AC000CD01089597FB072E16F4009407D077FDBB
:105AD00009D00E944E2D07FC05D03EF4909581958B
